{
  "_format": "hh-sol-artifact-1",
  "contractName": "Relyer",
  "sourceName": "contracts/Relyer.sol",
  "abi": [
    {
      "inputs": [
        {
          "internalType": "address",
          "name": "router",
          "type": "address"
        },
        {
          "internalType": "address",
          "name": "link",
          "type": "address"
        },
        {
          "internalType": "address",
          "name": "_protocolEndpoint",
          "type": "address"
        }
      ],
      "stateMutability": "nonpayable",
      "type": "constructor"
    },
    {
      "inputs": [
        {
          "internalType": "address",
          "name": "owner",
          "type": "address"
        },
        {
          "internalType": "address",
          "name": "target",
          "type": "address"
        },
        {
          "internalType": "uint256",
          "name": "value",
          "type": "uint256"
        }
      ],
      "name": "FailedToWithdrawEth",
      "type": "error"
    },
    {
      "inputs": [
        {
          "internalType": "address",
          "name": "router",
          "type": "address"
        }
      ],
      "name": "InvalidRouter",
      "type": "error"
    },
    {
      "anonymous": false,
      "inputs": [
        {
          "indexed": false,
          "internalType": "bytes32",
          "name": "latestMessageId",
          "type": "bytes32"
        },
        {
          "indexed": false,
          "internalType": "uint64",
          "name": "latestSourceChainSelector",
          "type": "uint64"
        },
        {
          "indexed": false,
          "internalType": "address",
          "name": "latestSender",
          "type": "address"
        },
        {
          "components": [
            {
              "internalType": "address",
              "name": "user",
              "type": "address"
            },
            {
              "internalType": "bytes",
              "name": "callData",
              "type": "bytes"
            },
            {
              "internalType": "address",
              "name": "destinationExacuteContract",
              "type": "address"
            },
            {
              "internalType": "uint32",
              "name": "chainId",
              "type": "uint32"
            }
          ],
          "indexed": false,
          "internalType": "struct Relyer.MessageData",
          "name": "latestMessage",
          "type": "tuple"
        },
        {
          "components": [
            {
              "internalType": "address",
              "name": "token",
              "type": "address"
            },
            {
              "internalType": "uint256",
              "name": "amount",
              "type": "uint256"
            }
          ],
          "indexed": false,
          "internalType": "struct Client.EVMTokenAmount",
          "name": "token",
          "type": "tuple"
        }
      ],
      "name": "MessageReceived",
      "type": "event"
    },
    {
      "anonymous": false,
      "inputs": [
        {
          "indexed": false,
          "internalType": "bytes32",
          "name": "messageId",
          "type": "bytes32"
        }
      ],
      "name": "MessageSent",
      "type": "event"
    },
    {
      "anonymous": false,
      "inputs": [
        {
          "indexed": true,
          "internalType": "address",
          "name": "from",
          "type": "address"
        },
        {
          "indexed": true,
          "internalType": "address",
          "name": "to",
          "type": "address"
        }
      ],
      "name": "OwnershipTransferRequested",
      "type": "event"
    },
    {
      "anonymous": false,
      "inputs": [
        {
          "indexed": true,
          "internalType": "address",
          "name": "from",
          "type": "address"
        },
        {
          "indexed": true,
          "internalType": "address",
          "name": "to",
          "type": "address"
        }
      ],
      "name": "OwnershipTransferred",
      "type": "event"
    },
    {
      "inputs": [],
      "name": "acceptOwnership",
      "outputs": [],
      "stateMutability": "nonpayable",
      "type": "function"
    },
    {
      "inputs": [
        {
          "components": [
            {
              "internalType": "bytes32",
              "name": "messageId",
              "type": "bytes32"
            },
            {
              "internalType": "uint64",
              "name": "sourceChainSelector",
              "type": "uint64"
            },
            {
              "internalType": "bytes",
              "name": "sender",
              "type": "bytes"
            },
            {
              "internalType": "bytes",
              "name": "data",
              "type": "bytes"
            },
            {
              "components": [
                {
                  "internalType": "address",
                  "name": "token",
                  "type": "address"
                },
                {
                  "internalType": "uint256",
                  "name": "amount",
                  "type": "uint256"
                }
              ],
              "internalType": "struct Client.EVMTokenAmount[]",
              "name": "destTokenAmounts",
              "type": "tuple[]"
            }
          ],
          "internalType": "struct Client.Any2EVMMessage",
          "name": "message",
          "type": "tuple"
        }
      ],
      "name": "ccipReceive",
      "outputs": [],
      "stateMutability": "nonpayable",
      "type": "function"
    },
    {
      "inputs": [],
      "name": "getLatestMessageDetails",
      "outputs": [
        {
          "internalType": "bytes32",
          "name": "",
          "type": "bytes32"
        },
        {
          "internalType": "uint64",
          "name": "",
          "type": "uint64"
        },
        {
          "internalType": "address",
          "name": "",
          "type": "address"
        },
        {
          "components": [
            {
              "internalType": "address",
              "name": "user",
              "type": "address"
            },
            {
              "internalType": "bytes",
              "name": "callData",
              "type": "bytes"
            },
            {
              "internalType": "address",
              "name": "destinationExacuteContract",
              "type": "address"
            },
            {
              "internalType": "uint32",
              "name": "chainId",
              "type": "uint32"
            }
          ],
          "internalType": "struct Relyer.MessageData",
          "name": "",
          "type": "tuple"
        }
      ],
      "stateMutability": "view",
      "type": "function"
    },
    {
      "inputs": [],
      "name": "getRouter",
      "outputs": [
        {
          "internalType": "address",
          "name": "",
          "type": "address"
        }
      ],
      "stateMutability": "view",
      "type": "function"
    },
    {
      "inputs": [
        {
          "internalType": "uint32",
          "name": "chainID",
          "type": "uint32"
        },
        {
          "internalType": "uint64",
          "name": "chainSelector",
          "type": "uint64"
        }
      ],
      "name": "initChainIdToSelector",
      "outputs": [],
      "stateMutability": "nonpayable",
      "type": "function"
    },
    {
      "inputs": [
        {
          "internalType": "uint32",
          "name": "chainId",
          "type": "uint32"
        },
        {
          "internalType": "address",
          "name": "routerAddress",
          "type": "address"
        }
      ],
      "name": "initRelyers",
      "outputs": [],
      "stateMutability": "nonpayable",
      "type": "function"
    },
    {
      "inputs": [],
      "name": "owner",
      "outputs": [
        {
          "internalType": "address",
          "name": "",
          "type": "address"
        }
      ],
      "stateMutability": "view",
      "type": "function"
    },
    {
      "inputs": [],
      "name": "protocolEndpoint",
      "outputs": [
        {
          "internalType": "address",
          "name": "",
          "type": "address"
        }
      ],
      "stateMutability": "view",
      "type": "function"
    },
    {
      "inputs": [
        {
          "internalType": "uint32",
          "name": "chainID",
          "type": "uint32"
        },
        {
          "components": [
            {
              "internalType": "address",
              "name": "user",
              "type": "address"
            },
            {
              "internalType": "bytes",
              "name": "callData",
              "type": "bytes"
            },
            {
              "internalType": "address",
              "name": "destinationExacuteContract",
              "type": "address"
            },
            {
              "internalType": "uint32",
              "name": "chainId",
              "type": "uint32"
            }
          ],
          "internalType": "struct Relyer.MessageData",
          "name": "messageData",
          "type": "tuple"
        }
      ],
      "name": "sendMessage",
      "outputs": [],
      "stateMutability": "nonpayable",
      "type": "function"
    },
    {
      "inputs": [
        {
          "internalType": "uint32",
          "name": "chainID",
          "type": "uint32"
        },
        {
          "components": [
            {
              "internalType": "address",
              "name": "user",
              "type": "address"
            },
            {
              "internalType": "bytes",
              "name": "callData",
              "type": "bytes"
            },
            {
              "internalType": "address",
              "name": "destinationExacuteContract",
              "type": "address"
            },
            {
              "internalType": "uint32",
              "name": "chainId",
              "type": "uint32"
            }
          ],
          "internalType": "struct Relyer.MessageData",
          "name": "messageData",
          "type": "tuple"
        },
        {
          "components": [
            {
              "internalType": "address",
              "name": "token",
              "type": "address"
            },
            {
              "internalType": "uint256",
              "name": "amount",
              "type": "uint256"
            }
          ],
          "internalType": "struct Client.EVMTokenAmount[]",
          "name": "tokensToSendDetails",
          "type": "tuple[]"
        }
      ],
      "name": "sendMessageAndToken",
      "outputs": [],
      "stateMutability": "nonpayable",
      "type": "function"
    },
    {
      "inputs": [
        {
          "internalType": "uint32",
          "name": "chainId",
          "type": "uint32"
        },
        {
          "components": [
            {
              "internalType": "address",
              "name": "token",
              "type": "address"
            },
            {
              "internalType": "uint256",
              "name": "amount",
              "type": "uint256"
            }
          ],
          "internalType": "struct Client.EVMTokenAmount[]",
          "name": "tokensToSendDetails",
          "type": "tuple[]"
        }
      ],
      "name": "sendToken",
      "outputs": [],
      "stateMutability": "nonpayable",
      "type": "function"
    },
    {
      "inputs": [
        {
          "internalType": "bytes4",
          "name": "interfaceId",
          "type": "bytes4"
        }
      ],
      "name": "supportsInterface",
      "outputs": [
        {
          "internalType": "bool",
          "name": "",
          "type": "bool"
        }
      ],
      "stateMutability": "pure",
      "type": "function"
    },
    {
      "inputs": [
        {
          "internalType": "address",
          "name": "to",
          "type": "address"
        }
      ],
      "name": "transferOwnership",
      "outputs": [],
      "stateMutability": "nonpayable",
      "type": "function"
    },
    {
      "inputs": [
        {
          "internalType": "address",
          "name": "beneficiary",
          "type": "address"
        }
      ],
      "name": "withdraw",
      "outputs": [],
      "stateMutability": "nonpayable",
      "type": "function"
    },
    {
      "inputs": [
        {
          "internalType": "address",
          "name": "beneficiary",
          "type": "address"
        },
        {
          "internalType": "address",
          "name": "token",
          "type": "address"
        }
      ],
      "name": "withdrawToken",
      "outputs": [],
      "stateMutability": "nonpayable",
      "type": "function"
    },
    {
      "stateMutability": "payable",
      "type": "receive"
    }
  ],
  "bytecode": "0x60e06040523480156200001157600080fd5b506040516200379438038062003794833981810160405281019062000037919062000527565b3380600085600073ffffffffffffffffffffffffffffffffffffffff168173ffffffffffffffffffffffffffffffffffffffff1603620000b15760006040517fd7f73334000000000000000000000000000000000000000000000000000000008152600401620000a8919062000594565b60405180910390fd5b8073ffffffffffffffffffffffffffffffffffffffff1660808173ffffffffffffffffffffffffffffffffffffffff168152505050600073ffffffffffffffffffffffffffffffffffffffff168273ffffffffffffffffffffffffffffffffffffffff160362000158576040517f08c379a00000000000000000000000000000000000000000000000000000000081526004016200014f9062000612565b60405180910390fd5b816000806101000a81548173ffffffffffffffffffffffffffffffffffffffff021916908373ffffffffffffffffffffffffffffffffffffffff160217905550600073ffffffffffffffffffffffffffffffffffffffff168173ffffffffffffffffffffffffffffffffffffffff1614620001df57620001de816200038e60201b60201c565b5b505050600073ffffffffffffffffffffffffffffffffffffffff168373ffffffffffffffffffffffffffffffffffffffff1603620002575760006040517fd7f733340000000000000000000000000000000000000000000000000000000081526004016200024e919062000594565b60405180910390fd5b8173ffffffffffffffffffffffffffffffffffffffff1660a08173ffffffffffffffffffffffffffffffffffffffff1681525050600561ffff1660c08161ffff168152505080600760006101000a81548173ffffffffffffffffffffffffffffffffffffffff021916908373ffffffffffffffffffffffffffffffffffffffff16021790555060a05173ffffffffffffffffffffffffffffffffffffffff1663095ea7b36080517fffffffffffffffffffffffffffffffffffffffffffffffffffffffffffffffff6040518363ffffffff1660e01b81526004016200033e9291906200064f565b6020604051808303816000875af11580156200035e573d6000803e3d6000fd5b505050506040513d601f19601f82011682018060405250810190620003849190620006b9565b505050506200075d565b3373ffffffffffffffffffffffffffffffffffffffff168173ffffffffffffffffffffffffffffffffffffffff1603620003ff576040517f08c379a0000000000000000000000000000000000000000000000000000000008152600401620003f6906200073b565b60405180910390fd5b80600160006101000a81548173ffffffffffffffffffffffffffffffffffffffff021916908373ffffffffffffffffffffffffffffffffffffffff1602179055508073ffffffffffffffffffffffffffffffffffffffff1660008054906101000a900473ffffffffffffffffffffffffffffffffffffffff1673ffffffffffffffffffffffffffffffffffffffff167fed8889f560326eb138920d842192f0eb3dd22b4f139c87a2c57538e05bae127860405160405180910390a350565b600080fd5b600073ffffffffffffffffffffffffffffffffffffffff82169050919050565b6000620004ef82620004c2565b9050919050565b6200050181620004e2565b81146200050d57600080fd5b50565b6000815190506200052181620004f6565b92915050565b600080600060608486031215620005435762000542620004bd565b5b6000620005538682870162000510565b9350506020620005668682870162000510565b9250506040620005798682870162000510565b9150509250925092565b6200058e81620004e2565b82525050565b6000602082019050620005ab600083018462000583565b92915050565b600082825260208201905092915050565b7f43616e6e6f7420736574206f776e657220746f207a65726f0000000000000000600082015250565b6000620005fa601883620005b1565b91506200060782620005c2565b602082019050919050565b600060208201905081810360008301526200062d81620005eb565b9050919050565b6000819050919050565b620006498162000634565b82525050565b600060408201905062000666600083018562000583565b6200067560208301846200063e565b9392505050565b60008115159050919050565b62000693816200067c565b81146200069f57600080fd5b50565b600081519050620006b38162000688565b92915050565b600060208284031215620006d257620006d1620004bd565b5b6000620006e284828501620006a2565b91505092915050565b7f43616e6e6f74207472616e7366657220746f2073656c66000000000000000000600082015250565b600062000723601783620005b1565b91506200073082620006eb565b602082019050919050565b60006020820190508181036000830152620007568162000714565b9050919050565b60805160a05160c051612fc8620007cc600039600081816108700152610eb3015260008181610adb0152818161112e015261136b0152600081816109d901528181610b2e01528181610da90152818161101c015281816111810152818161128c01526113cb0152612fc86000f3fe6080604052600436106100ec5760003560e01c806379ba50971161008a5780638da5cb5b116100595780638da5cb5b146102c4578063b0f479a1146102ef578063e0c51e4f1461031a578063f2fde38b14610343576100f3565b806379ba50971461023257806385572ffb14610249578063857c44cd14610272578063899d87321461029b576100f3565b80633394e6f4116100c65780633394e6f4146101895780633aeac4e1146101b757806351cff8d9146101e057806377cad34c14610209576100f3565b806301ffc9a7146100f8578063238ec9a41461013557806327691c4914610160576100f3565b366100f357005b600080fd5b34801561010457600080fd5b5061011f600480360381019061011a9190611b41565b61036c565b60405161012c9190611b89565b60405180910390f35b34801561014157600080fd5b5061014a61043e565b6040516101579190611be5565b60405180910390f35b34801561016c57600080fd5b5061018760048036038101906101829190611c68565b610464565b005b34801561019557600080fd5b5061019e6104ce565b6040516101ae9493929190611dfe565b60405180910390f35b3480156101c357600080fd5b506101de60048036038101906101d99190611e4a565b61069a565b005b3480156101ec57600080fd5b5061020760048036038101906102029190611e8a565b6107a4565b005b34801561021557600080fd5b50610230600480360381019061022b919061208f565b610868565b005b34801561023e57600080fd5b50610247610c12565b005b34801561025557600080fd5b50610270600480360381019061026b919061210f565b610da7565b005b34801561027e57600080fd5b5061029960048036038101906102949190612184565b610e4c565b005b3480156102a757600080fd5b506102c260048036038101906102bd919061230d565b610e9e565b005b3480156102d057600080fd5b506102d961125f565b6040516102e69190611be5565b60405180910390f35b3480156102fb57600080fd5b50610304611288565b6040516103119190611be5565b60405180910390f35b34801561032657600080fd5b50610341600480360381019061033c9190612398565b6112b0565b005b34801561034f57600080fd5b5061036a60048036038101906103659190611e8a565b6114a7565b005b60007f85572ffb000000000000000000000000000000000000000000000000000000007bffffffffffffffffffffffffffffffffffffffffffffffffffffffff1916827bffffffffffffffffffffffffffffffffffffffffffffffffffffffff1916148061043757507f01ffc9a7000000000000000000000000000000000000000000000000000000007bffffffffffffffffffffffffffffffffffffffffffffffffffffffff1916827bffffffffffffffffffffffffffffffffffffffffffffffffffffffff1916145b9050919050565b600760009054906101000a900473ffffffffffffffffffffffffffffffffffffffff1681565b61046c6114bb565b80600860008463ffffffff1663ffffffff16815260200190815260200160002060006101000a81548173ffffffffffffffffffffffffffffffffffffffff021916908373ffffffffffffffffffffffffffffffffffffffff1602179055505050565b60008060006104db6119a8565b600254600360009054906101000a900467ffffffffffffffff16600360089054906101000a900473ffffffffffffffffffffffffffffffffffffffff166004806040518060800160405290816000820160009054906101000a900473ffffffffffffffffffffffffffffffffffffffff1673ffffffffffffffffffffffffffffffffffffffff1673ffffffffffffffffffffffffffffffffffffffff16815260200160018201805461058c90612423565b80601f01602080910402602001604051908101604052809291908181526020018280546105b890612423565b80156106055780601f106105da57610100808354040283529160200191610605565b820191906000526020600020905b8154815290600101906020018083116105e857829003601f168201915b505050505081526020016002820160009054906101000a900473ffffffffffffffffffffffffffffffffffffffff1673ffffffffffffffffffffffffffffffffffffffff1673ffffffffffffffffffffffffffffffffffffffff1681526020016002820160149054906101000a900463ffffffff1663ffffffff1663ffffffff16815250509050935093509350935090919293565b6106a26114bb565b60008173ffffffffffffffffffffffffffffffffffffffff166370a08231306040518263ffffffff1660e01b81526004016106dd9190611be5565b602060405180830381865afa1580156106fa573d6000803e3d6000fd5b505050506040513d601f19601f8201168201806040525081019061071e9190612469565b90508173ffffffffffffffffffffffffffffffffffffffff1663a9059cbb84836040518363ffffffff1660e01b815260040161075b9291906124a5565b6020604051808303816000875af115801561077a573d6000803e3d6000fd5b505050506040513d601f19601f8201168201806040525081019061079e91906124fa565b50505050565b6107ac6114bb565b600047905060008273ffffffffffffffffffffffffffffffffffffffff16826040516107d790612558565b60006040518083038185875af1925050503d8060008114610814576040519150601f19603f3d011682016040523d82523d6000602084013e610819565b606091505b5050905080610863573383836040517f9d11f56300000000000000000000000000000000000000000000000000000000815260040161085a9392919061256d565b60405180910390fd5b505050565b6000815190507f000000000000000000000000000000000000000000000000000000000000000061ffff168111156108d5576040517f08c379a00000000000000000000000000000000000000000000000000000000081526004016108cc90612627565b60405180910390fd5b60005b81811015610a83578281815181106108f3576108f2612647565b5b60200260200101516000015173ffffffffffffffffffffffffffffffffffffffff166323b872dd333086858151811061092f5761092e612647565b5b6020026020010151602001516040518463ffffffff1660e01b81526004016109599392919061256d565b6020604051808303816000875af1158015610978573d6000803e3d6000fd5b505050506040513d601f19601f8201168201806040525081019061099c91906124fa565b508281815181106109b0576109af612647565b5b60200260200101516000015173ffffffffffffffffffffffffffffffffffffffff1663095ea7b37f0000000000000000000000000000000000000000000000000000000000000000858481518110610a0b57610a0a612647565b5b6020026020010151602001516040518363ffffffff1660e01b8152600401610a349291906124a5565b6020604051808303816000875af1158015610a53573d6000803e3d6000fd5b505050506040513d601f19601f82011682018060405250810190610a7791906124fa565b508060010190506108d8565b5060006040518060a00160405280610a9a8661154b565b604051602001610aaa9190611be5565b60405160208183030381529060405281526020016040518060200160405280600081525081526020018481526020017f000000000000000000000000000000000000000000000000000000000000000073ffffffffffffffffffffffffffffffffffffffff16815260200160405180602001604052806000815250815250905060007f000000000000000000000000000000000000000000000000000000000000000073ffffffffffffffffffffffffffffffffffffffff166396f4e9f9610b7187611594565b846040518363ffffffff1660e01b8152600401610b8f9291906127ee565b6020604051808303816000875af1158015610bae573d6000803e3d6000fd5b505050506040513d601f19601f82011682018060405250810190610bd2919061284a565b90507f54791b38f3859327992a1ca0590ad3c0f08feba98d1a4f56ab0dca74d203392a81604051610c039190612877565b60405180910390a15050505050565b600160009054906101000a900473ffffffffffffffffffffffffffffffffffffffff1673ffffffffffffffffffffffffffffffffffffffff163373ffffffffffffffffffffffffffffffffffffffff1614610ca2576040517f08c379a0000000000000000000000000000000000000000000000000000000008152600401610c99906128de565b60405180910390fd5b60008060009054906101000a900473ffffffffffffffffffffffffffffffffffffffff169050336000806101000a81548173ffffffffffffffffffffffffffffffffffffffff021916908373ffffffffffffffffffffffffffffffffffffffff1602179055506000600160006101000a81548173ffffffffffffffffffffffffffffffffffffffff021916908373ffffffffffffffffffffffffffffffffffffffff1602179055503373ffffffffffffffffffffffffffffffffffffffff168173ffffffffffffffffffffffffffffffffffffffff167f8be0079c531659141344cd1fd0a4f28419497f9722a3daafe3b4186f6b6457e060405160405180910390a350565b7f000000000000000000000000000000000000000000000000000000000000000073ffffffffffffffffffffffffffffffffffffffff163373ffffffffffffffffffffffffffffffffffffffff1614610e3757336040517fd7f73334000000000000000000000000000000000000000000000000000000008152600401610e2e9190611be5565b60405180910390fd5b610e4981610e44906129f3565b6115d1565b50565b610e546114bb565b80600960008463ffffffff1663ffffffff16815260200190815260200160002060006101000a81548167ffffffffffffffff021916908367ffffffffffffffff1602179055505050565b6000610ea984611594565b90506000825190507f000000000000000000000000000000000000000000000000000000000000000061ffff16811115610f18576040517f08c379a0000000000000000000000000000000000000000000000000000000008152600401610f0f90612627565b60405180910390fd5b60005b818110156110c657838181518110610f3657610f35612647565b5b60200260200101516000015173ffffffffffffffffffffffffffffffffffffffff166323b872dd3330878581518110610f7257610f71612647565b5b6020026020010151602001516040518463ffffffff1660e01b8152600401610f9c9392919061256d565b6020604051808303816000875af1158015610fbb573d6000803e3d6000fd5b505050506040513d601f19601f82011682018060405250810190610fdf91906124fa565b50838181518110610ff357610ff2612647565b5b60200260200101516000015173ffffffffffffffffffffffffffffffffffffffff1663095ea7b37f000000000000000000000000000000000000000000000000000000000000000086848151811061104e5761104d612647565b5b6020026020010151602001516040518363ffffffff1660e01b81526004016110779291906124a5565b6020604051808303816000875af1158015611096573d6000803e3d6000fd5b505050506040513d601f19601f820116820180604052508101906110ba91906124fa565b50806001019050610f1b565b5060006040518060a001604052806110dd8861154b565b6040516020016110ed9190611be5565b6040516020818303038152906040528152602001866040516020016111129190612a06565b60405160208183030381529060405281526020018581526020017f000000000000000000000000000000000000000000000000000000000000000073ffffffffffffffffffffffffffffffffffffffff16815260200160405180602001604052806000815250815250905060007f000000000000000000000000000000000000000000000000000000000000000073ffffffffffffffffffffffffffffffffffffffff166396f4e9f985846040518363ffffffff1660e01b81526004016111da9291906127ee565b6020604051808303816000875af11580156111f9573d6000803e3d6000fd5b505050506040513d601f19601f8201168201806040525081019061121d919061284a565b90507f54791b38f3859327992a1ca0590ad3c0f08feba98d1a4f56ab0dca74d203392a8160405161124e9190612877565b60405180910390a150505050505050565b60008060009054906101000a900473ffffffffffffffffffffffffffffffffffffffff16905090565b60007f0000000000000000000000000000000000000000000000000000000000000000905090565b60006040518060a001604052806112c68561154b565b6040516020016112d69190611be5565b6040516020818303038152906040528152602001836040516020016112fb9190612a06565b6040516020818303038152906040528152602001600067ffffffffffffffff81111561132a57611329611ebc565b5b60405190808252806020026020018201604052801561136357816020015b611350611a02565b8152602001906001900390816113485790505b5081526020017f000000000000000000000000000000000000000000000000000000000000000073ffffffffffffffffffffffffffffffffffffffff16815260200160405180602001604052806000815250815250905060006113c584611594565b905060007f000000000000000000000000000000000000000000000000000000000000000073ffffffffffffffffffffffffffffffffffffffff166396f4e9f983856040518363ffffffff1660e01b81526004016114249291906127ee565b6020604051808303816000875af1158015611443573d6000803e3d6000fd5b505050506040513d601f19601f82011682018060405250810190611467919061284a565b90507f54791b38f3859327992a1ca0590ad3c0f08feba98d1a4f56ab0dca74d203392a816040516114989190612877565b60405180910390a15050505050565b6114af6114bb565b6114b88161187c565b50565b60008054906101000a900473ffffffffffffffffffffffffffffffffffffffff1673ffffffffffffffffffffffffffffffffffffffff163373ffffffffffffffffffffffffffffffffffffffff1614611549576040517f08c379a000000000000000000000000000000000000000000000000000000000815260040161154090612a74565b60405180910390fd5b565b6000600860008363ffffffff1663ffffffff16815260200190815260200160002060009054906101000a900473ffffffffffffffffffffffffffffffffffffffff169050919050565b6000600960008363ffffffff1663ffffffff16815260200190815260200160002060009054906101000a900467ffffffffffffffff169050919050565b80600001516002819055508060200151600360006101000a81548167ffffffffffffffff021916908367ffffffffffffffff16021790555080604001518060200190518101906116219190612ad2565b600360086101000a81548173ffffffffffffffffffffffffffffffffffffffff021916908373ffffffffffffffffffffffffffffffffffffffff16021790555080606001518060200190518101906116799190612c2d565b600460008201518160000160006101000a81548173ffffffffffffffffffffffffffffffffffffffff021916908373ffffffffffffffffffffffffffffffffffffffff16021790555060208201518160010190805190602001906116de929190611a32565b5060408201518160020160006101000a81548173ffffffffffffffffffffffffffffffffffffffff021916908373ffffffffffffffffffffffffffffffffffffffff16021790555060608201518160020160146101000a81548163ffffffff021916908363ffffffff160217905550905050600760009054906101000a900473ffffffffffffffffffffffffffffffffffffffff1673ffffffffffffffffffffffffffffffffffffffff16600460010160405161179b9190612d0a565b6000604051808303816000865af19150503d80600081146117d8576040519150601f19603f3d011682016040523d82523d6000602084013e6117dd565b606091505b5050507fbec222c940cd9b226d030d792c3ae2f3f87e6143f7374d16665c0969f6d69fec600254600360009054906101000a900467ffffffffffffffff16600360089054906101000a900473ffffffffffffffffffffffffffffffffffffffff166004856080015160008151811061185857611857612647565b5b6020026020010151604051611871959493929190612ecc565b60405180910390a150565b3373ffffffffffffffffffffffffffffffffffffffff168173ffffffffffffffffffffffffffffffffffffffff16036118ea576040517f08c379a00000000000000000000000000000000000000000000000000000000081526004016118e190612f72565b60405180910390fd5b80600160006101000a81548173ffffffffffffffffffffffffffffffffffffffff021916908373ffffffffffffffffffffffffffffffffffffffff1602179055508073ffffffffffffffffffffffffffffffffffffffff1660008054906101000a900473ffffffffffffffffffffffffffffffffffffffff1673ffffffffffffffffffffffffffffffffffffffff167fed8889f560326eb138920d842192f0eb3dd22b4f139c87a2c57538e05bae127860405160405180910390a350565b6040518060800160405280600073ffffffffffffffffffffffffffffffffffffffff16815260200160608152602001600073ffffffffffffffffffffffffffffffffffffffff168152602001600063ffffffff1681525090565b6040518060400160405280600073ffffffffffffffffffffffffffffffffffffffff168152602001600081525090565b828054611a3e90612423565b90600052602060002090601f016020900481019282611a605760008555611aa7565b82601f10611a7957805160ff1916838001178555611aa7565b82800160010185558215611aa7579182015b82811115611aa6578251825591602001919060010190611a8b565b5b509050611ab49190611ab8565b5090565b5b80821115611ad1576000816000905550600101611ab9565b5090565b6000604051905090565b600080fd5b600080fd5b60007fffffffff0000000000000000000000000000000000000000000000000000000082169050919050565b611b1e81611ae9565b8114611b2957600080fd5b50565b600081359050611b3b81611b15565b92915050565b600060208284031215611b5757611b56611adf565b5b6000611b6584828501611b2c565b91505092915050565b60008115159050919050565b611b8381611b6e565b82525050565b6000602082019050611b9e6000830184611b7a565b92915050565b600073ffffffffffffffffffffffffffffffffffffffff82169050919050565b6000611bcf82611ba4565b9050919050565b611bdf81611bc4565b82525050565b6000602082019050611bfa6000830184611bd6565b92915050565b600063ffffffff82169050919050565b611c1981611c00565b8114611c2457600080fd5b50565b600081359050611c3681611c10565b92915050565b611c4581611bc4565b8114611c5057600080fd5b50565b600081359050611c6281611c3c565b92915050565b60008060408385031215611c7f57611c7e611adf565b5b6000611c8d85828601611c27565b9250506020611c9e85828601611c53565b9150509250929050565b6000819050919050565b611cbb81611ca8565b82525050565b600067ffffffffffffffff82169050919050565b611cde81611cc1565b82525050565b611ced81611bc4565b82525050565b600081519050919050565b600082825260208201905092915050565b60005b83811015611d2d578082015181840152602081019050611d12565b83811115611d3c576000848401525b50505050565b6000601f19601f8301169050919050565b6000611d5e82611cf3565b611d688185611cfe565b9350611d78818560208601611d0f565b611d8181611d42565b840191505092915050565b611d9581611c00565b82525050565b6000608083016000830151611db36000860182611ce4565b5060208301518482036020860152611dcb8282611d53565b9150506040830151611de06040860182611ce4565b506060830151611df36060860182611d8c565b508091505092915050565b6000608082019050611e136000830187611cb2565b611e206020830186611cd5565b611e2d6040830185611bd6565b8181036060830152611e3f8184611d9b565b905095945050505050565b60008060408385031215611e6157611e60611adf565b5b6000611e6f85828601611c53565b9250506020611e8085828601611c53565b9150509250929050565b600060208284031215611ea057611e9f611adf565b5b6000611eae84828501611c53565b91505092915050565b600080fd5b7f4e487b7100000000000000000000000000000000000000000000000000000000600052604160045260246000fd5b611ef482611d42565b810181811067ffffffffffffffff82111715611f1357611f12611ebc565b5b80604052505050565b6000611f26611ad5565b9050611f328282611eeb565b919050565b600067ffffffffffffffff821115611f5257611f51611ebc565b5b602082029050602081019050919050565b600080fd5b600080fd5b600080fd5b6000819050919050565b611f8581611f72565b8114611f9057600080fd5b50565b600081359050611fa281611f7c565b92915050565b600060408284031215611fbe57611fbd611f68565b5b611fc86040611f1c565b90506000611fd884828501611c53565b6000830152506020611fec84828501611f93565b60208301525092915050565b600061200b61200684611f37565b611f1c565b9050808382526020820190506040840283018581111561202e5761202d611f63565b5b835b8181101561205757806120438882611fa8565b845260208401935050604081019050612030565b5050509392505050565b600082601f83011261207657612075611eb7565b5b8135612086848260208601611ff8565b91505092915050565b600080604083850312156120a6576120a5611adf565b5b60006120b485828601611c27565b925050602083013567ffffffffffffffff8111156120d5576120d4611ae4565b5b6120e185828601612061565b9150509250929050565b600080fd5b600060a08284031215612106576121056120eb565b5b81905092915050565b60006020828403121561212557612124611adf565b5b600082013567ffffffffffffffff81111561214357612142611ae4565b5b61214f848285016120f0565b91505092915050565b61216181611cc1565b811461216c57600080fd5b50565b60008135905061217e81612158565b92915050565b6000806040838503121561219b5761219a611adf565b5b60006121a985828601611c27565b92505060206121ba8582860161216f565b9150509250929050565b600080fd5b600067ffffffffffffffff8211156121e4576121e3611ebc565b5b6121ed82611d42565b9050602081019050919050565b82818337600083830152505050565b600061221c612217846121c9565b611f1c565b905082815260208101848484011115612238576122376121c4565b5b6122438482856121fa565b509392505050565b600082601f8301126122605761225f611eb7565b5b8135612270848260208601612209565b91505092915050565b60006080828403121561228f5761228e611f68565b5b6122996080611f1c565b905060006122a984828501611c53565b600083015250602082013567ffffffffffffffff8111156122cd576122cc611f6d565b5b6122d98482850161224b565b60208301525060406122ed84828501611c53565b604083015250606061230184828501611c27565b60608301525092915050565b60008060006060848603121561232657612325611adf565b5b600061233486828701611c27565b935050602084013567ffffffffffffffff81111561235557612354611ae4565b5b61236186828701612279565b925050604084013567ffffffffffffffff81111561238257612381611ae4565b5b61238e86828701612061565b9150509250925092565b600080604083850312156123af576123ae611adf565b5b60006123bd85828601611c27565b925050602083013567ffffffffffffffff8111156123de576123dd611ae4565b5b6123ea85828601612279565b9150509250929050565b7f4e487b7100000000000000000000000000000000000000000000000000000000600052602260045260246000fd5b6000600282049050600182168061243b57607f821691505b60208210810361244e5761244d6123f4565b5b50919050565b60008151905061246381611f7c565b92915050565b60006020828403121561247f5761247e611adf565b5b600061248d84828501612454565b91505092915050565b61249f81611f72565b82525050565b60006040820190506124ba6000830185611bd6565b6124c76020830184612496565b9392505050565b6124d781611b6e565b81146124e257600080fd5b50565b6000815190506124f4816124ce565b92915050565b6000602082840312156125105761250f611adf565b5b600061251e848285016124e5565b91505092915050565b600081905092915050565b50565b6000612542600083612527565b915061254d82612532565b600082019050919050565b600061256382612535565b9150819050919050565b60006060820190506125826000830186611bd6565b61258f6020830185611bd6565b61259c6040830184612496565b949350505050565b600082825260208201905092915050565b7f4d6178696d756d203520646966666572656e7420746f6b656e732063616e206260008201527f652073656e74207065722043434950204d657373616765000000000000000000602082015250565b60006126116037836125a4565b915061261c826125b5565b604082019050919050565b6000602082019050818103600083015261264081612604565b9050919050565b7f4e487b7100000000000000000000000000000000000000000000000000000000600052603260045260246000fd5b600081519050919050565b600082825260208201905092915050565b6000819050602082019050919050565b6126ab81611f72565b82525050565b6040820160008201516126c76000850182611ce4565b5060208201516126da60208501826126a2565b50505050565b60006126ec83836126b1565b60408301905092915050565b6000602082019050919050565b600061271082612676565b61271a8185612681565b935061272583612692565b8060005b8381101561275657815161273d88826126e0565b9750612748836126f8565b925050600181019050612729565b5085935050505092915050565b600060a08301600083015184820360008601526127808282611d53565b9150506020830151848203602086015261279a8282611d53565b915050604083015184820360408601526127b48282612705565b91505060608301516127c96060860182611ce4565b50608083015184820360808601526127e18282611d53565b9150508091505092915050565b60006040820190506128036000830185611cd5565b81810360208301526128158184612763565b90509392505050565b61282781611ca8565b811461283257600080fd5b50565b6000815190506128448161281e565b92915050565b6000602082840312156128605761285f611adf565b5b600061286e84828501612835565b91505092915050565b600060208201905061288c6000830184611cb2565b92915050565b7f4d7573742062652070726f706f736564206f776e657200000000000000000000600082015250565b60006128c86016836125a4565b91506128d382612892565b602082019050919050565b600060208201905081810360008301526128f7816128bb565b9050919050565b60008135905061290d8161281e565b92915050565b600060a0828403121561292957612928611f68565b5b61293360a0611f1c565b90506000612943848285016128fe565b60008301525060206129578482850161216f565b602083015250604082013567ffffffffffffffff81111561297b5761297a611f6d565b5b6129878482850161224b565b604083015250606082013567ffffffffffffffff8111156129ab576129aa611f6d565b5b6129b78482850161224b565b606083015250608082013567ffffffffffffffff8111156129db576129da611f6d565b5b6129e784828501612061565b60808301525092915050565b60006129ff3683612913565b9050919050565b60006020820190508181036000830152612a208184611d9b565b905092915050565b7f4f6e6c792063616c6c61626c65206279206f776e657200000000000000000000600082015250565b6000612a5e6016836125a4565b9150612a6982612a28565b602082019050919050565b60006020820190508181036000830152612a8d81612a51565b9050919050565b6000612a9f82611ba4565b9050919050565b612aaf81612a94565b8114612aba57600080fd5b50565b600081519050612acc81612aa6565b92915050565b600060208284031215612ae857612ae7611adf565b5b6000612af684828501612abd565b91505092915050565b600081519050612b0e81611c3c565b92915050565b6000612b27612b22846121c9565b611f1c565b905082815260208101848484011115612b4357612b426121c4565b5b612b4e848285611d0f565b509392505050565b600082601f830112612b6b57612b6a611eb7565b5b8151612b7b848260208601612b14565b91505092915050565b600081519050612b9381611c10565b92915050565b600060808284031215612baf57612bae611f68565b5b612bb96080611f1c565b90506000612bc984828501612aff565b600083015250602082015167ffffffffffffffff811115612bed57612bec611f6d565b5b612bf984828501612b56565b6020830152506040612c0d84828501612aff565b6040830152506060612c2184828501612b84565b60608301525092915050565b600060208284031215612c4357612c42611adf565b5b600082015167ffffffffffffffff811115612c6157612c60611ae4565b5b612c6d84828501612b99565b91505092915050565b60008190508160005260206000209050919050565b60008154612c9881612423565b612ca28186612527565b94506001821660008114612cbd5760018114612cce57612d01565b60ff19831686528186019350612d01565b612cd785612c76565b60005b83811015612cf957815481890152600182019150602081019050612cda565b838801955050505b50505092915050565b6000612d168284612c8b565b915081905092915050565b60008160001c9050919050565b600073ffffffffffffffffffffffffffffffffffffffff82169050919050565b6000612d61612d5c83612d21565b612d2e565b9050919050565b60008154612d7581612423565b612d7f8186611cfe565b94506001821660008114612d9a5760018114612dac57612ddf565b60ff1983168652602086019350612ddf565b612db585612c76565b60005b83811015612dd757815481890152600182019150602081019050612db8565b808801955050505b50505092915050565b60008160a01c9050919050565b600063ffffffff82169050919050565b6000612e18612e1383612de8565b612df5565b9050919050565b6000608083016000808401549050612e3681612d4e565b612e436000870182611ce4565b50600184018583036020870152612e5a8382612d68565b92505060028401549050612e6d81612d4e565b612e7a6040870182611ce4565b50612e8481612e05565b612e916060870182611d8c565b50819250505092915050565b604082016000820151612eb36000850182611ce4565b506020820151612ec660208501826126a2565b50505050565b600060c082019050612ee16000830188611cb2565b612eee6020830187611cd5565b612efb6040830186611bd6565b8181036060830152612f0d8185612e1f565b9050612f1c6080830184612e9d565b9695505050505050565b7f43616e6e6f74207472616e7366657220746f2073656c66000000000000000000600082015250565b6000612f5c6017836125a4565b9150612f6782612f26565b602082019050919050565b60006020820190508181036000830152612f8b81612f4f565b905091905056fea264697066735822122019f6adc675e89762b3b05e5b6af2add971625ba02bc26aeb972e1581e812787864736f6c634300080d0033",
  "linkReferences": {},
  "deployedLinkReferences": {}
}