{
  "_format": "hh-sol-artifact-1",
  "contractName": "StellarX",
  "sourceName": "contracts/aave-v2/StellarX.sol",
  "abi": [
    {
      "inputs": [],
      "name": "AmountIsZero",
      "type": "error"
    },
    {
      "inputs": [],
      "name": "BorrowNotPaused",
      "type": "error"
    },
    {
      "inputs": [],
      "name": "ExceedsMaxBasisPoints",
      "type": "error"
    },
    {
      "inputs": [],
      "name": "MarketAlreadyCreated",
      "type": "error"
    },
    {
      "inputs": [],
      "name": "MarketIsDeprecated",
      "type": "error"
    },
    {
      "inputs": [],
      "name": "MarketIsNotListedOnAave",
      "type": "error"
    },
    {
      "inputs": [],
      "name": "MarketNotCreated",
      "type": "error"
    },
    {
      "inputs": [],
      "name": "MaxNumberOfMarkets",
      "type": "error"
    },
    {
      "inputs": [],
      "name": "MaxSortedUsersCannotBeZero",
      "type": "error"
    },
    {
      "inputs": [],
      "name": "ZeroAddress",
      "type": "error"
    },
    {
      "anonymous": false,
      "inputs": [
        {
          "components": [
            {
              "internalType": "uint64",
              "name": "supply",
              "type": "uint64"
            },
            {
              "internalType": "uint64",
              "name": "borrow",
              "type": "uint64"
            },
            {
              "internalType": "uint64",
              "name": "withdraw",
              "type": "uint64"
            },
            {
              "internalType": "uint64",
              "name": "repay",
              "type": "uint64"
            }
          ],
          "indexed": false,
          "internalType": "struct Types.MaxGasForMatching",
          "name": "_defaultMaxGasForMatching",
          "type": "tuple"
        }
      ],
      "name": "DefaultMaxGasForMatchingSet",
      "type": "event"
    },
    {
      "anonymous": false,
      "inputs": [
        {
          "indexed": true,
          "internalType": "address",
          "name": "_entryPositionsManager",
          "type": "address"
        }
      ],
      "name": "EntryPositionsManagerSet",
      "type": "event"
    },
    {
      "anonymous": false,
      "inputs": [
        {
          "indexed": true,
          "internalType": "address",
          "name": "_exitPositionsManager",
          "type": "address"
        }
      ],
      "name": "ExitPositionsManagerSet",
      "type": "event"
    },
    {
      "anonymous": false,
      "inputs": [
        {
          "indexed": false,
          "internalType": "uint8",
          "name": "version",
          "type": "uint8"
        }
      ],
      "name": "Initialized",
      "type": "event"
    },
    {
      "anonymous": false,
      "inputs": [
        {
          "indexed": true,
          "internalType": "address",
          "name": "_interestRatesManager",
          "type": "address"
        }
      ],
      "name": "InterestRatesSet",
      "type": "event"
    },
    {
      "anonymous": false,
      "inputs": [
        {
          "indexed": true,
          "internalType": "address",
          "name": "_poolToken",
          "type": "address"
        },
        {
          "indexed": false,
          "internalType": "bool",
          "name": "_isPaused",
          "type": "bool"
        }
      ],
      "name": "IsBorrowPausedSet",
      "type": "event"
    },
    {
      "anonymous": false,
      "inputs": [
        {
          "indexed": true,
          "internalType": "address",
          "name": "_poolToken",
          "type": "address"
        },
        {
          "indexed": false,
          "internalType": "bool",
          "name": "_isDeprecated",
          "type": "bool"
        }
      ],
      "name": "IsDeprecatedSet",
      "type": "event"
    },
    {
      "anonymous": false,
      "inputs": [
        {
          "indexed": true,
          "internalType": "address",
          "name": "_poolToken",
          "type": "address"
        },
        {
          "indexed": false,
          "internalType": "bool",
          "name": "_isPaused",
          "type": "bool"
        }
      ],
      "name": "IsLiquidateBorrowPausedSet",
      "type": "event"
    },
    {
      "anonymous": false,
      "inputs": [
        {
          "indexed": true,
          "internalType": "address",
          "name": "_poolToken",
          "type": "address"
        },
        {
          "indexed": false,
          "internalType": "bool",
          "name": "_isPaused",
          "type": "bool"
        }
      ],
      "name": "IsLiquidateCollateralPausedSet",
      "type": "event"
    },
    {
      "anonymous": false,
      "inputs": [
        {
          "indexed": true,
          "internalType": "address",
          "name": "_poolToken",
          "type": "address"
        },
        {
          "indexed": false,
          "internalType": "bool",
          "name": "_isPaused",
          "type": "bool"
        }
      ],
      "name": "IsRepayPausedSet",
      "type": "event"
    },
    {
      "anonymous": false,
      "inputs": [
        {
          "indexed": true,
          "internalType": "address",
          "name": "_poolToken",
          "type": "address"
        },
        {
          "indexed": false,
          "internalType": "bool",
          "name": "_isPaused",
          "type": "bool"
        }
      ],
      "name": "IsSupplyPausedSet",
      "type": "event"
    },
    {
      "anonymous": false,
      "inputs": [
        {
          "indexed": true,
          "internalType": "address",
          "name": "_poolToken",
          "type": "address"
        },
        {
          "indexed": false,
          "internalType": "bool",
          "name": "_isPaused",
          "type": "bool"
        }
      ],
      "name": "IsWithdrawPausedSet",
      "type": "event"
    },
    {
      "anonymous": false,
      "inputs": [
        {
          "indexed": true,
          "internalType": "address",
          "name": "_poolToken",
          "type": "address"
        },
        {
          "indexed": false,
          "internalType": "uint16",
          "name": "_reserveFactor",
          "type": "uint16"
        },
        {
          "indexed": false,
          "internalType": "uint16",
          "name": "_p2pIndexCursor",
          "type": "uint16"
        }
      ],
      "name": "MarketCreated",
      "type": "event"
    },
    {
      "anonymous": false,
      "inputs": [
        {
          "indexed": false,
          "internalType": "uint256",
          "name": "_newValue",
          "type": "uint256"
        }
      ],
      "name": "MaxSortedUsersSet",
      "type": "event"
    },
    {
      "anonymous": false,
      "inputs": [
        {
          "indexed": true,
          "internalType": "address",
          "name": "previousOwner",
          "type": "address"
        },
        {
          "indexed": true,
          "internalType": "address",
          "name": "newOwner",
          "type": "address"
        }
      ],
      "name": "OwnershipTransferred",
      "type": "event"
    },
    {
      "anonymous": false,
      "inputs": [
        {
          "indexed": true,
          "internalType": "address",
          "name": "_poolToken",
          "type": "address"
        },
        {
          "indexed": false,
          "internalType": "uint16",
          "name": "_newValue",
          "type": "uint16"
        }
      ],
      "name": "P2PIndexCursorSet",
      "type": "event"
    },
    {
      "anonymous": false,
      "inputs": [
        {
          "indexed": true,
          "internalType": "address",
          "name": "_poolToken",
          "type": "address"
        },
        {
          "indexed": false,
          "internalType": "bool",
          "name": "_isP2PDisabled",
          "type": "bool"
        }
      ],
      "name": "P2PStatusSet",
      "type": "event"
    },
    {
      "anonymous": false,
      "inputs": [
        {
          "indexed": true,
          "internalType": "address",
          "name": "_poolToken",
          "type": "address"
        },
        {
          "indexed": false,
          "internalType": "uint16",
          "name": "_newValue",
          "type": "uint16"
        }
      ],
      "name": "ReserveFactorSet",
      "type": "event"
    },
    {
      "anonymous": false,
      "inputs": [
        {
          "indexed": true,
          "internalType": "address",
          "name": "_poolToken",
          "type": "address"
        },
        {
          "indexed": false,
          "internalType": "uint256",
          "name": "_amountClaimed",
          "type": "uint256"
        }
      ],
      "name": "ReserveFeeClaimed",
      "type": "event"
    },
    {
      "anonymous": false,
      "inputs": [
        {
          "indexed": true,
          "internalType": "address",
          "name": "_newTreasuryVaultAddress",
          "type": "address"
        }
      ],
      "name": "TreasuryVaultSet",
      "type": "event"
    },
    {
      "inputs": [],
      "name": "BORROWING_MASK",
      "outputs": [
        {
          "internalType": "bytes32",
          "name": "",
          "type": "bytes32"
        }
      ],
      "stateMutability": "view",
      "type": "function"
    },
    {
      "inputs": [],
      "name": "CURRENT_CHAINID",
      "outputs": [
        {
          "internalType": "uint32",
          "name": "",
          "type": "uint32"
        }
      ],
      "stateMutability": "view",
      "type": "function"
    },
    {
      "inputs": [],
      "name": "DEFAULT_LIQUIDATION_CLOSE_FACTOR",
      "outputs": [
        {
          "internalType": "uint256",
          "name": "",
          "type": "uint256"
        }
      ],
      "stateMutability": "view",
      "type": "function"
    },
    {
      "inputs": [],
      "name": "HEALTH_FACTOR_LIQUIDATION_THRESHOLD",
      "outputs": [
        {
          "internalType": "uint256",
          "name": "",
          "type": "uint256"
        }
      ],
      "stateMutability": "view",
      "type": "function"
    },
    {
      "inputs": [],
      "name": "MAX_BASIS_POINTS",
      "outputs": [
        {
          "internalType": "uint16",
          "name": "",
          "type": "uint16"
        }
      ],
      "stateMutability": "view",
      "type": "function"
    },
    {
      "inputs": [],
      "name": "MAX_NB_OF_MARKETS",
      "outputs": [
        {
          "internalType": "uint256",
          "name": "",
          "type": "uint256"
        }
      ],
      "stateMutability": "view",
      "type": "function"
    },
    {
      "inputs": [],
      "name": "NO_REFERRAL_CODE",
      "outputs": [
        {
          "internalType": "uint8",
          "name": "",
          "type": "uint8"
        }
      ],
      "stateMutability": "view",
      "type": "function"
    },
    {
      "inputs": [],
      "name": "ONE",
      "outputs": [
        {
          "internalType": "bytes32",
          "name": "",
          "type": "bytes32"
        }
      ],
      "stateMutability": "view",
      "type": "function"
    },
    {
      "inputs": [],
      "name": "ST_ETH",
      "outputs": [
        {
          "internalType": "address",
          "name": "",
          "type": "address"
        }
      ],
      "stateMutability": "view",
      "type": "function"
    },
    {
      "inputs": [],
      "name": "ST_ETH_BASE_REBASE_INDEX",
      "outputs": [
        {
          "internalType": "uint256",
          "name": "",
          "type": "uint256"
        }
      ],
      "stateMutability": "view",
      "type": "function"
    },
    {
      "inputs": [],
      "name": "VARIABLE_INTEREST_MODE",
      "outputs": [
        {
          "internalType": "uint8",
          "name": "",
          "type": "uint8"
        }
      ],
      "stateMutability": "view",
      "type": "function"
    },
    {
      "inputs": [],
      "name": "aaveIncentivesController",
      "outputs": [
        {
          "internalType": "address",
          "name": "",
          "type": "address"
        }
      ],
      "stateMutability": "view",
      "type": "function"
    },
    {
      "inputs": [],
      "name": "addressesProvider",
      "outputs": [
        {
          "internalType": "contract ILendingPoolAddressesProvider",
          "name": "",
          "type": "address"
        }
      ],
      "stateMutability": "view",
      "type": "function"
    },
    {
      "inputs": [
        {
          "internalType": "address",
          "name": "_poolToken",
          "type": "address"
        },
        {
          "internalType": "uint256",
          "name": "_amount",
          "type": "uint256"
        },
        {
          "internalType": "uint32",
          "name": "_dstChainID",
          "type": "uint32"
        }
      ],
      "name": "borrow",
      "outputs": [],
      "stateMutability": "nonpayable",
      "type": "function"
    },
    {
      "inputs": [
        {
          "internalType": "address",
          "name": "_poolToken",
          "type": "address"
        },
        {
          "internalType": "uint256",
          "name": "_amount",
          "type": "uint256"
        },
        {
          "internalType": "uint256",
          "name": "_maxGasForMatching",
          "type": "uint256"
        },
        {
          "internalType": "address",
          "name": "_onBehalf",
          "type": "address"
        },
        {
          "internalType": "uint32",
          "name": "_dstChainID",
          "type": "uint32"
        }
      ],
      "name": "borrow",
      "outputs": [],
      "stateMutability": "nonpayable",
      "type": "function"
    },
    {
      "inputs": [
        {
          "internalType": "address",
          "name": "",
          "type": "address"
        },
        {
          "internalType": "address",
          "name": "",
          "type": "address"
        }
      ],
      "name": "borrowBalanceInOf",
      "outputs": [
        {
          "internalType": "uint256",
          "name": "inP2P",
          "type": "uint256"
        },
        {
          "internalType": "uint256",
          "name": "onPool",
          "type": "uint256"
        }
      ],
      "stateMutability": "view",
      "type": "function"
    },
    {
      "inputs": [
        {
          "internalType": "address",
          "name": "",
          "type": "address"
        }
      ],
      "name": "borrowMask",
      "outputs": [
        {
          "internalType": "bytes32",
          "name": "",
          "type": "bytes32"
        }
      ],
      "stateMutability": "view",
      "type": "function"
    },
    {
      "inputs": [
        {
          "internalType": "address[]",
          "name": "_poolTokens",
          "type": "address[]"
        },
        {
          "internalType": "uint256[]",
          "name": "_amounts",
          "type": "uint256[]"
        }
      ],
      "name": "claimToTreasury",
      "outputs": [],
      "stateMutability": "nonpayable",
      "type": "function"
    },
    {
      "inputs": [
        {
          "internalType": "address",
          "name": "_underlyingToken",
          "type": "address"
        },
        {
          "internalType": "uint16",
          "name": "_reserveFactor",
          "type": "uint16"
        },
        {
          "internalType": "uint16",
          "name": "_p2pIndexCursor",
          "type": "uint16"
        }
      ],
      "name": "createMarket",
      "outputs": [],
      "stateMutability": "nonpayable",
      "type": "function"
    },
    {
      "inputs": [],
      "name": "defaultMaxGasForMatching",
      "outputs": [
        {
          "internalType": "uint64",
          "name": "supply",
          "type": "uint64"
        },
        {
          "internalType": "uint64",
          "name": "borrow",
          "type": "uint64"
        },
        {
          "internalType": "uint64",
          "name": "withdraw",
          "type": "uint64"
        },
        {
          "internalType": "uint64",
          "name": "repay",
          "type": "uint64"
        }
      ],
      "stateMutability": "view",
      "type": "function"
    },
    {
      "inputs": [
        {
          "internalType": "address",
          "name": "",
          "type": "address"
        }
      ],
      "name": "deltas",
      "outputs": [
        {
          "internalType": "uint256",
          "name": "p2pSupplyDelta",
          "type": "uint256"
        },
        {
          "internalType": "uint256",
          "name": "p2pBorrowDelta",
          "type": "uint256"
        },
        {
          "internalType": "uint256",
          "name": "p2pSupplyAmount",
          "type": "uint256"
        },
        {
          "internalType": "uint256",
          "name": "p2pBorrowAmount",
          "type": "uint256"
        }
      ],
      "stateMutability": "view",
      "type": "function"
    },
    {
      "inputs": [],
      "name": "entryPositionsManager",
      "outputs": [
        {
          "internalType": "contract IEntryPositionsManager",
          "name": "",
          "type": "address"
        }
      ],
      "stateMutability": "view",
      "type": "function"
    },
    {
      "inputs": [],
      "name": "exitPositionsManager",
      "outputs": [
        {
          "internalType": "contract IExitPositionsManager",
          "name": "",
          "type": "address"
        }
      ],
      "stateMutability": "view",
      "type": "function"
    },
    {
      "inputs": [
        {
          "internalType": "address",
          "name": "_poolToken",
          "type": "address"
        },
        {
          "internalType": "enum Types.PositionType",
          "name": "_positionType",
          "type": "uint8"
        }
      ],
      "name": "getHead",
      "outputs": [
        {
          "internalType": "address",
          "name": "head",
          "type": "address"
        }
      ],
      "stateMutability": "view",
      "type": "function"
    },
    {
      "inputs": [],
      "name": "getMarketsCreated",
      "outputs": [
        {
          "internalType": "address[]",
          "name": "",
          "type": "address[]"
        }
      ],
      "stateMutability": "view",
      "type": "function"
    },
    {
      "inputs": [
        {
          "internalType": "address",
          "name": "_poolToken",
          "type": "address"
        },
        {
          "internalType": "enum Types.PositionType",
          "name": "_positionType",
          "type": "uint8"
        },
        {
          "internalType": "address",
          "name": "_user",
          "type": "address"
        }
      ],
      "name": "getNext",
      "outputs": [
        {
          "internalType": "address",
          "name": "next",
          "type": "address"
        }
      ],
      "stateMutability": "view",
      "type": "function"
    },
    {
      "inputs": [],
      "name": "incentivesVault",
      "outputs": [
        {
          "internalType": "address",
          "name": "",
          "type": "address"
        }
      ],
      "stateMutability": "view",
      "type": "function"
    },
    {
      "inputs": [
        {
          "internalType": "address",
          "name": "_poolToken",
          "type": "address"
        },
        {
          "internalType": "uint256",
          "name": "_amount",
          "type": "uint256"
        }
      ],
      "name": "increaseP2PDeltas",
      "outputs": [],
      "stateMutability": "nonpayable",
      "type": "function"
    },
    {
      "inputs": [
        {
          "internalType": "contract IEntryPositionsManager",
          "name": "_entryPositionsManager",
          "type": "address"
        },
        {
          "internalType": "contract IExitPositionsManager",
          "name": "_exitPositionsManager",
          "type": "address"
        },
        {
          "internalType": "contract IInterestRatesManager",
          "name": "_interestRatesManager",
          "type": "address"
        },
        {
          "internalType": "contract ILendingPoolAddressesProvider",
          "name": "_lendingPoolAddressesProvider",
          "type": "address"
        },
        {
          "components": [
            {
              "internalType": "uint64",
              "name": "supply",
              "type": "uint64"
            },
            {
              "internalType": "uint64",
              "name": "borrow",
              "type": "uint64"
            },
            {
              "internalType": "uint64",
              "name": "withdraw",
              "type": "uint64"
            },
            {
              "internalType": "uint64",
              "name": "repay",
              "type": "uint64"
            }
          ],
          "internalType": "struct Types.MaxGasForMatching",
          "name": "_defaultMaxGasForMatching",
          "type": "tuple"
        },
        {
          "internalType": "uint256",
          "name": "_maxSortedUsers",
          "type": "uint256"
        }
      ],
      "name": "initialize",
      "outputs": [],
      "stateMutability": "nonpayable",
      "type": "function"
    },
    {
      "inputs": [],
      "name": "interestRatesManager",
      "outputs": [
        {
          "internalType": "contract IInterestRatesManager",
          "name": "",
          "type": "address"
        }
      ],
      "stateMutability": "view",
      "type": "function"
    },
    {
      "inputs": [],
      "name": "isClaimRewardsPaused",
      "outputs": [
        {
          "internalType": "bool",
          "name": "",
          "type": "bool"
        }
      ],
      "stateMutability": "view",
      "type": "function"
    },
    {
      "inputs": [
        {
          "internalType": "address",
          "name": "_poolTokenBorrowed",
          "type": "address"
        },
        {
          "internalType": "address",
          "name": "_poolTokenCollateral",
          "type": "address"
        },
        {
          "internalType": "address",
          "name": "_liquidator",
          "type": "address"
        },
        {
          "internalType": "address",
          "name": "_borrower",
          "type": "address"
        },
        {
          "internalType": "uint256",
          "name": "_amount",
          "type": "uint256"
        },
        {
          "internalType": "uint32",
          "name": "_dstChainID",
          "type": "uint32"
        }
      ],
      "name": "liquidate",
      "outputs": [],
      "stateMutability": "nonpayable",
      "type": "function"
    },
    {
      "inputs": [
        {
          "internalType": "address",
          "name": "",
          "type": "address"
        }
      ],
      "name": "market",
      "outputs": [
        {
          "internalType": "address",
          "name": "underlyingToken",
          "type": "address"
        },
        {
          "internalType": "uint16",
          "name": "reserveFactor",
          "type": "uint16"
        },
        {
          "internalType": "uint16",
          "name": "p2pIndexCursor",
          "type": "uint16"
        },
        {
          "internalType": "bool",
          "name": "isCreated",
          "type": "bool"
        },
        {
          "internalType": "bool",
          "name": "isPaused",
          "type": "bool"
        },
        {
          "internalType": "bool",
          "name": "isPartiallyPaused",
          "type": "bool"
        },
        {
          "internalType": "bool",
          "name": "isP2PDisabled",
          "type": "bool"
        }
      ],
      "stateMutability": "view",
      "type": "function"
    },
    {
      "inputs": [
        {
          "internalType": "address",
          "name": "",
          "type": "address"
        }
      ],
      "name": "marketPauseStatus",
      "outputs": [
        {
          "internalType": "bool",
          "name": "isSupplyPaused",
          "type": "bool"
        },
        {
          "internalType": "bool",
          "name": "isBorrowPaused",
          "type": "bool"
        },
        {
          "internalType": "bool",
          "name": "isWithdrawPaused",
          "type": "bool"
        },
        {
          "internalType": "bool",
          "name": "isRepayPaused",
          "type": "bool"
        },
        {
          "internalType": "bool",
          "name": "isLiquidateCollateralPaused",
          "type": "bool"
        },
        {
          "internalType": "bool",
          "name": "isLiquidateBorrowPaused",
          "type": "bool"
        },
        {
          "internalType": "bool",
          "name": "isDeprecated",
          "type": "bool"
        }
      ],
      "stateMutability": "view",
      "type": "function"
    },
    {
      "inputs": [],
      "name": "maxSortedUsers",
      "outputs": [
        {
          "internalType": "uint256",
          "name": "",
          "type": "uint256"
        }
      ],
      "stateMutability": "view",
      "type": "function"
    },
    {
      "inputs": [],
      "name": "owner",
      "outputs": [
        {
          "internalType": "address",
          "name": "",
          "type": "address"
        }
      ],
      "stateMutability": "view",
      "type": "function"
    },
    {
      "inputs": [
        {
          "internalType": "address",
          "name": "",
          "type": "address"
        }
      ],
      "name": "p2pBorrowIndex",
      "outputs": [
        {
          "internalType": "uint256",
          "name": "",
          "type": "uint256"
        }
      ],
      "stateMutability": "view",
      "type": "function"
    },
    {
      "inputs": [
        {
          "internalType": "address",
          "name": "",
          "type": "address"
        }
      ],
      "name": "p2pSupplyIndex",
      "outputs": [
        {
          "internalType": "uint256",
          "name": "",
          "type": "uint256"
        }
      ],
      "stateMutability": "view",
      "type": "function"
    },
    {
      "inputs": [],
      "name": "pool",
      "outputs": [
        {
          "internalType": "contract ILendingPool",
          "name": "",
          "type": "address"
        }
      ],
      "stateMutability": "view",
      "type": "function"
    },
    {
      "inputs": [
        {
          "internalType": "address",
          "name": "",
          "type": "address"
        }
      ],
      "name": "poolIndexes",
      "outputs": [
        {
          "internalType": "uint32",
          "name": "lastUpdateTimestamp",
          "type": "uint32"
        },
        {
          "internalType": "uint112",
          "name": "poolSupplyIndex",
          "type": "uint112"
        },
        {
          "internalType": "uint112",
          "name": "poolBorrowIndex",
          "type": "uint112"
        }
      ],
      "stateMutability": "view",
      "type": "function"
    },
    {
      "inputs": [],
      "name": "relyer",
      "outputs": [
        {
          "internalType": "address",
          "name": "",
          "type": "address"
        }
      ],
      "stateMutability": "view",
      "type": "function"
    },
    {
      "inputs": [],
      "name": "renounceOwnership",
      "outputs": [],
      "stateMutability": "nonpayable",
      "type": "function"
    },
    {
      "inputs": [
        {
          "internalType": "address",
          "name": "_poolToken",
          "type": "address"
        },
        {
          "internalType": "address",
          "name": "_onBehalf",
          "type": "address"
        },
        {
          "internalType": "uint256",
          "name": "_amount",
          "type": "uint256"
        },
        {
          "internalType": "uint32",
          "name": "_dstChainID",
          "type": "uint32"
        }
      ],
      "name": "repay",
      "outputs": [],
      "stateMutability": "nonpayable",
      "type": "function"
    },
    {
      "inputs": [
        {
          "internalType": "address",
          "name": "_poolToken",
          "type": "address"
        },
        {
          "internalType": "uint256",
          "name": "_amount",
          "type": "uint256"
        },
        {
          "internalType": "uint32",
          "name": "_dstChainID",
          "type": "uint32"
        }
      ],
      "name": "repay",
      "outputs": [],
      "stateMutability": "nonpayable",
      "type": "function"
    },
    {
      "inputs": [],
      "name": "rewardsManager",
      "outputs": [
        {
          "internalType": "address",
          "name": "",
          "type": "address"
        }
      ],
      "stateMutability": "view",
      "type": "function"
    },
    {
      "inputs": [
        {
          "internalType": "uint32",
          "name": "_chainID",
          "type": "uint32"
        },
        {
          "internalType": "bool",
          "name": "_value",
          "type": "bool"
        }
      ],
      "name": "setChainIDState",
      "outputs": [],
      "stateMutability": "nonpayable",
      "type": "function"
    },
    {
      "inputs": [
        {
          "components": [
            {
              "internalType": "uint64",
              "name": "supply",
              "type": "uint64"
            },
            {
              "internalType": "uint64",
              "name": "borrow",
              "type": "uint64"
            },
            {
              "internalType": "uint64",
              "name": "withdraw",
              "type": "uint64"
            },
            {
              "internalType": "uint64",
              "name": "repay",
              "type": "uint64"
            }
          ],
          "internalType": "struct Types.MaxGasForMatching",
          "name": "_defaultMaxGasForMatching",
          "type": "tuple"
        }
      ],
      "name": "setDefaultMaxGasForMatching",
      "outputs": [],
      "stateMutability": "nonpayable",
      "type": "function"
    },
    {
      "inputs": [
        {
          "internalType": "contract IEntryPositionsManager",
          "name": "_entryPositionsManager",
          "type": "address"
        }
      ],
      "name": "setEntryPositionsManager",
      "outputs": [],
      "stateMutability": "nonpayable",
      "type": "function"
    },
    {
      "inputs": [
        {
          "internalType": "contract IExitPositionsManager",
          "name": "_exitPositionsManager",
          "type": "address"
        }
      ],
      "name": "setExitPositionsManager",
      "outputs": [],
      "stateMutability": "nonpayable",
      "type": "function"
    },
    {
      "inputs": [
        {
          "internalType": "contract IInterestRatesManager",
          "name": "_interestRatesManager",
          "type": "address"
        }
      ],
      "name": "setInterestRatesManager",
      "outputs": [],
      "stateMutability": "nonpayable",
      "type": "function"
    },
    {
      "inputs": [
        {
          "internalType": "address",
          "name": "_poolToken",
          "type": "address"
        },
        {
          "internalType": "bool",
          "name": "_isPaused",
          "type": "bool"
        }
      ],
      "name": "setIsBorrowPaused",
      "outputs": [],
      "stateMutability": "nonpayable",
      "type": "function"
    },
    {
      "inputs": [
        {
          "internalType": "address",
          "name": "_poolToken",
          "type": "address"
        },
        {
          "internalType": "bool",
          "name": "_isDeprecated",
          "type": "bool"
        }
      ],
      "name": "setIsDeprecated",
      "outputs": [],
      "stateMutability": "nonpayable",
      "type": "function"
    },
    {
      "inputs": [
        {
          "internalType": "address",
          "name": "_poolToken",
          "type": "address"
        },
        {
          "internalType": "bool",
          "name": "_isPaused",
          "type": "bool"
        }
      ],
      "name": "setIsLiquidateBorrowPaused",
      "outputs": [],
      "stateMutability": "nonpayable",
      "type": "function"
    },
    {
      "inputs": [
        {
          "internalType": "address",
          "name": "_poolToken",
          "type": "address"
        },
        {
          "internalType": "bool",
          "name": "_isPaused",
          "type": "bool"
        }
      ],
      "name": "setIsLiquidateCollateralPaused",
      "outputs": [],
      "stateMutability": "nonpayable",
      "type": "function"
    },
    {
      "inputs": [
        {
          "internalType": "address",
          "name": "_poolToken",
          "type": "address"
        },
        {
          "internalType": "bool",
          "name": "_isP2PDisabled",
          "type": "bool"
        }
      ],
      "name": "setIsP2PDisabled",
      "outputs": [],
      "stateMutability": "nonpayable",
      "type": "function"
    },
    {
      "inputs": [
        {
          "internalType": "bool",
          "name": "_isPaused",
          "type": "bool"
        }
      ],
      "name": "setIsPausedForAllMarkets",
      "outputs": [],
      "stateMutability": "nonpayable",
      "type": "function"
    },
    {
      "inputs": [
        {
          "internalType": "address",
          "name": "_poolToken",
          "type": "address"
        },
        {
          "internalType": "bool",
          "name": "_isPaused",
          "type": "bool"
        }
      ],
      "name": "setIsRepayPaused",
      "outputs": [],
      "stateMutability": "nonpayable",
      "type": "function"
    },
    {
      "inputs": [
        {
          "internalType": "address",
          "name": "_poolToken",
          "type": "address"
        },
        {
          "internalType": "bool",
          "name": "_isPaused",
          "type": "bool"
        }
      ],
      "name": "setIsSupplyPaused",
      "outputs": [],
      "stateMutability": "nonpayable",
      "type": "function"
    },
    {
      "inputs": [
        {
          "internalType": "address",
          "name": "_poolToken",
          "type": "address"
        },
        {
          "internalType": "bool",
          "name": "_isPaused",
          "type": "bool"
        }
      ],
      "name": "setIsWithdrawPaused",
      "outputs": [],
      "stateMutability": "nonpayable",
      "type": "function"
    },
    {
      "inputs": [
        {
          "internalType": "uint256",
          "name": "_newMaxSortedUsers",
          "type": "uint256"
        }
      ],
      "name": "setMaxSortedUsers",
      "outputs": [],
      "stateMutability": "nonpayable",
      "type": "function"
    },
    {
      "inputs": [
        {
          "internalType": "address",
          "name": "_poolToken",
          "type": "address"
        },
        {
          "internalType": "uint16",
          "name": "_p2pIndexCursor",
          "type": "uint16"
        }
      ],
      "name": "setP2PIndexCursor",
      "outputs": [],
      "stateMutability": "nonpayable",
      "type": "function"
    },
    {
      "inputs": [
        {
          "internalType": "address",
          "name": "_relyer",
          "type": "address"
        }
      ],
      "name": "setRelyer",
      "outputs": [],
      "stateMutability": "nonpayable",
      "type": "function"
    },
    {
      "inputs": [
        {
          "internalType": "address",
          "name": "_poolToken",
          "type": "address"
        },
        {
          "internalType": "uint16",
          "name": "_newReserveFactor",
          "type": "uint16"
        }
      ],
      "name": "setReserveFactor",
      "outputs": [],
      "stateMutability": "nonpayable",
      "type": "function"
    },
    {
      "inputs": [
        {
          "internalType": "address",
          "name": "_treasuryVault",
          "type": "address"
        }
      ],
      "name": "setTreasuryVault",
      "outputs": [],
      "stateMutability": "nonpayable",
      "type": "function"
    },
    {
      "inputs": [
        {
          "internalType": "address",
          "name": "_poolToken",
          "type": "address"
        },
        {
          "internalType": "uint256",
          "name": "_amount",
          "type": "uint256"
        },
        {
          "internalType": "uint32",
          "name": "_dstChainID",
          "type": "uint32"
        }
      ],
      "name": "supply",
      "outputs": [],
      "stateMutability": "nonpayable",
      "type": "function"
    },
    {
      "inputs": [
        {
          "internalType": "address",
          "name": "_poolToken",
          "type": "address"
        },
        {
          "internalType": "address",
          "name": "_onBehalf",
          "type": "address"
        },
        {
          "internalType": "uint256",
          "name": "_amount",
          "type": "uint256"
        },
        {
          "internalType": "uint256",
          "name": "_maxGasForMatching",
          "type": "uint256"
        },
        {
          "internalType": "uint32",
          "name": "_dstChainID",
          "type": "uint32"
        }
      ],
      "name": "supply",
      "outputs": [],
      "stateMutability": "nonpayable",
      "type": "function"
    },
    {
      "inputs": [
        {
          "internalType": "address",
          "name": "_poolToken",
          "type": "address"
        },
        {
          "internalType": "address",
          "name": "_onBehalf",
          "type": "address"
        },
        {
          "internalType": "uint256",
          "name": "_amount",
          "type": "uint256"
        },
        {
          "internalType": "uint32",
          "name": "_dstChainID",
          "type": "uint32"
        }
      ],
      "name": "supply",
      "outputs": [],
      "stateMutability": "nonpayable",
      "type": "function"
    },
    {
      "inputs": [
        {
          "internalType": "address",
          "name": "",
          "type": "address"
        },
        {
          "internalType": "address",
          "name": "",
          "type": "address"
        }
      ],
      "name": "supplyBalanceInOf",
      "outputs": [
        {
          "internalType": "uint256",
          "name": "inP2P",
          "type": "uint256"
        },
        {
          "internalType": "uint256",
          "name": "onPool",
          "type": "uint256"
        }
      ],
      "stateMutability": "view",
      "type": "function"
    },
    {
      "inputs": [
        {
          "internalType": "uint32",
          "name": "",
          "type": "uint32"
        }
      ],
      "name": "supportChain",
      "outputs": [
        {
          "internalType": "bool",
          "name": "",
          "type": "bool"
        }
      ],
      "stateMutability": "view",
      "type": "function"
    },
    {
      "inputs": [
        {
          "internalType": "address",
          "name": "newOwner",
          "type": "address"
        }
      ],
      "name": "transferOwnership",
      "outputs": [],
      "stateMutability": "nonpayable",
      "type": "function"
    },
    {
      "inputs": [],
      "name": "treasuryVault",
      "outputs": [
        {
          "internalType": "address",
          "name": "",
          "type": "address"
        }
      ],
      "stateMutability": "view",
      "type": "function"
    },
    {
      "inputs": [
        {
          "internalType": "address",
          "name": "_poolToken",
          "type": "address"
        }
      ],
      "name": "updateIndexes",
      "outputs": [],
      "stateMutability": "nonpayable",
      "type": "function"
    },
    {
      "inputs": [
        {
          "internalType": "address",
          "name": "",
          "type": "address"
        }
      ],
      "name": "userMarkets",
      "outputs": [
        {
          "internalType": "bytes32",
          "name": "",
          "type": "bytes32"
        }
      ],
      "stateMutability": "view",
      "type": "function"
    },
    {
      "inputs": [
        {
          "internalType": "address",
          "name": "_poolToken",
          "type": "address"
        },
        {
          "internalType": "uint256",
          "name": "_amount",
          "type": "uint256"
        },
        {
          "internalType": "address",
          "name": "_onBehalf",
          "type": "address"
        },
        {
          "internalType": "address",
          "name": "_receiver",
          "type": "address"
        },
        {
          "internalType": "uint32",
          "name": "_dstChainID",
          "type": "uint32"
        }
      ],
      "name": "withdraw",
      "outputs": [],
      "stateMutability": "nonpayable",
      "type": "function"
    },
    {
      "inputs": [
        {
          "internalType": "address",
          "name": "_poolToken",
          "type": "address"
        },
        {
          "internalType": "uint256",
          "name": "_amount",
          "type": "uint256"
        },
        {
          "internalType": "uint32",
          "name": "_dstChainID",
          "type": "uint32"
        }
      ],
      "name": "withdraw",
      "outputs": [],
      "stateMutability": "nonpayable",
      "type": "function"
    }
  ],
  "bytecode": "0x60806040523480156200001157600080fd5b5060008060019054906101000a900460ff16159050808015620000445750600160008054906101000a900460ff1660ff16105b8062000080575062000061306200016360201b6200474c1760201c565b1580156200007f5750600160008054906101000a900460ff1660ff16145b5b620000c2576040517f08c379a0000000000000000000000000000000000000000000000000000000008152600401620000b9906200020d565b60405180910390fd5b60016000806101000a81548160ff021916908360ff160217905550801562000100576001600060016101000a81548160ff0219169083151502179055505b80156200015c5760008060016101000a81548160ff0219169083151502179055507f7f26b83ff96e1f2b6a682f133852f6798a09c465da95921460cefb3847402498600160405162000153919062000289565b60405180910390a15b50620002a6565b6000808273ffffffffffffffffffffffffffffffffffffffff163b119050919050565b600082825260208201905092915050565b7f496e697469616c697a61626c653a20636f6e747261637420697320616c72656160008201527f647920696e697469616c697a6564000000000000000000000000000000000000602082015250565b6000620001f5602e8362000186565b9150620002028262000197565b604082019050919050565b600060208201905081810360008301526200022881620001e6565b9050919050565b6000819050919050565b600060ff82169050919050565b6000819050919050565b6000620002716200026b62000265846200022f565b62000246565b62000239565b9050919050565b620002838162000250565b82525050565b6000602082019050620002a0600083018462000278565b92915050565b6180fd80620002b66000396000f3fe608060405234801561001057600080fd5b50600436106104495760003560e01c80638da5cb5b11610241578063c3ff9c961161013b578063e43dce13116100c3578063f2f4ca1611610087578063f2f4ca1614610d27578063f2fde38b14610d48578063f4ea93d814610d64578063f8180c6614610d82578063fb8b758d14610da057610449565b8063e43dce1314610c84578063e501ed0414610ca0578063e5a602ac14610cd1578063e61c6d6f14610ced578063e957d88314610d0b57610449565b8063d5f80c341161010a578063d5f80c3414610bda578063d664f72c14610bf6578063de2bdf5014610c14578063defe205314610c4a578063df303f8a14610c6857610449565b8063c3ff9c9614610b66578063c72c4d1014610b82578063caf642f914610ba0578063cb830d0314610bbc57610449565b8063a2253eec116101c9578063b24be6871161018d578063b24be68714610abe578063b505e7a214610adc578063bc45d19014610afa578063c2ee3a0814610b2a578063c3525c2814610b4857610449565b8063a2253eec14610a2e578063a74e472b14610a4a578063a97a5a2d14610a68578063ae08d0c014610a84578063af8b1c6f14610aa057610449565b80639b901dad116102105780639b901dad1461096d5780639f382f6a14610989578063a086fc22146109bf578063a10c0250146109f2578063a1d6000c14610a1057610449565b80638da5cb5b146108e65780639023951b14610904578063947574ac14610920578063967ea03d1461095157610449565b80634862ce001161035257806370e5b869116102da5780637db2ddfe1161029e5780637db2ddfe146108305780637f3ad0561461084c5780637feedb571461086a578063854f7ebb146108865780638d2e9814146108b657610449565b806370e5b869146107a2578063715018a6146107be57806373df915f146107c85780637683a908146107e4578063789caa3e1461080057610449565b80635f2475ca116103215780635f2475ca146106fc57806361749c981461071a578063660cbf9714610736578063661cd5fc146107545780636ade46611461078657610449565b80634862ce00146106785780635594500a1461069457806359355005146106b05780635acff027146106cc57610449565b80632ee0a7d7116103d557806335a7a627116103a457806335a7a627146105d4578063381adc6b146105f25780633b0a79ec146106225780633c42c3b714610640578063411302501461065c57610449565b80632ee0a7d7146105605780632ff34fe11461057c57806331bc995914610598578063338346d2146105b657610449565b80631fefed481161041c5780631fefed48146104c0578063242747b0146104dc57806325802ca6146104f85780632c1e7960146105145780632ebf4be01461053057610449565b80630b6ff4221461044e5780630cda22dc1461046a57806316f0115b146104865780631858af72146104a4575b600080fd5b61046860048036038101906104639190616132565b610dbe565b005b610484600480360381019061047f91906161eb565b610ece565b005b61048e610fc3565b60405161049b9190616277565b60405180910390f35b6104be60048036038101906104b99190616292565b610fe9565b005b6104da60048036038101906104d5919061631d565b61102e565b005b6104f660048036038101906104f19190616292565b61116a565b005b610512600480360381019061050d919061635d565b6111af565b005b61052e600480360381019061052991906163ea565b6116b0565b005b61054a6004803603810190610545919061642a565b6116f3565b6040516105579190616466565b60405180910390f35b61057a6004803603810190610575919061631d565b61170b565b005b61059660048036038101906105919190616481565b611847565b005b6105a06118ca565b6040516105ad91906164ca565b60405180910390f35b6105be6118cf565b6040516105cb91906164f4565b60405180910390f35b6105dc6118e7565b6040516105e9919061651e565b60405180910390f35b61060c6004803603810190610607919061642a565b6118ec565b6040516106199190616552565b60405180910390f35b61062a611904565b604051610637919061658e565b60405180910390f35b61065a600480360381019061065591906165e7565b61192a565b005b61067660048036038101906106719190616652565b611a1f565b005b610692600480360381019061068d919061667f565b611b14565b005b6106ae60048036038101906106a9919061631d565b611b5a565b005b6106ca60048036038101906106c591906166e6565b611c96565b005b6106e660048036038101906106e19190616786565b611cba565b6040516106f391906164f4565b60405180910390f35b610704611ea7565b60405161071191906164f4565b60405180910390f35b610734600480360381019061072f9190616800565b611ecd565b005b61073e6127a9565b60405161074b91906164f4565b60405180910390f35b61076e6004803603810190610769919061642a565b6127cf565b60405161077d9392919061687c565b60405180910390f35b6107a0600480360381019061079b9190616a3a565b61283d565b005b6107bc60048036038101906107b7919061631d565b612c6d565b005b6107c6612e2f565b005b6107e260048036038101906107dd919061631d565b612e43565b005b6107fe60048036038101906107f99190616ac9565b612f7f565b005b61081a60048036038101906108159190616af6565b613083565b60405161082791906164f4565b60405180910390f35b61084a60048036038101906108459190616292565b613299565b005b6108546132df565b6040516108619190616b6a565b60405180910390f35b610884600480360381019061087f919061631d565b613305565b005b6108a0600480360381019061089b919061642a565b6134d2565b6040516108ad9190616466565b60405180910390f35b6108d060048036038101906108cb9190616b85565b6134ea565b6040516108dd9190616bc1565b60405180910390f35b6108ee61350a565b6040516108fb91906164f4565b60405180910390f35b61091e60048036038101906109199190616c97565b613534565b005b61093a60048036038101906109359190616d18565b6138dc565b604051610948929190616d58565b60405180910390f35b61096b6004803603810190610966919061667f565b61390d565b005b61098760048036038101906109829190616d81565b613953565b005b6109a3600480360381019061099e919061642a565b613a3f565b6040516109b69796959493929190616e0b565b60405180910390f35b6109d960048036038101906109d4919061642a565b613af1565b6040516109e99493929190616e7a565b60405180910390f35b6109fa613b21565b604051610a0791906164ca565b60405180910390f35b610a18613b26565b604051610a259190616f7d565b60405180910390f35b610a486004803603810190610a43919061642a565b613bb4565b005b610a52613c48565b604051610a5f9190616466565b60405180910390f35b610a826004803603810190610a7d9190616f9f565b613c58565b005b610a9e6004803603810190610a999190616292565b613cd3565b005b610aa8613d18565b604051610ab591906164f4565b60405180910390f35b610ac6613d3e565b604051610ad391906164f4565b60405180910390f35b610ae4613d64565b604051610af19190616552565b60405180910390f35b610b146004803603810190610b0f919061642a565b613d8b565b604051610b219190616552565b60405180910390f35b610b32613da3565b604051610b3f9190616552565b60405180910390f35b610b50613dab565b604051610b5d9190616466565b60405180910390f35b610b806004803603810190610b7b919061631d565b613db7565b005b610b8a613ef3565b604051610b979190616fed565b60405180910390f35b610bba6004803603810190610bb59190617008565b613f19565b005b610bc4613fe8565b604051610bd19190616bc1565b60405180910390f35b610bf46004803603810190610bef919061642a565b613ffb565b005b610bfe61408a565b604051610c0b9190616466565b60405180910390f35b610c2e6004803603810190610c29919061642a565b614090565b604051610c419796959493929190617048565b60405180910390f35b610c5261412d565b604051610c5f91906164f4565b60405180910390f35b610c826004803603810190610c7d91906170b7565b614153565b005b610c9e6004803603810190610c99919061631d565b6142df565b005b610cba6004803603810190610cb59190616d18565b61441b565b604051610cc8929190616d58565b60405180910390f35b610ceb6004803603810190610ce691906170b7565b61444c565b005b610cf56145d8565b604051610d029190616466565b60405180910390f35b610d256004803603810190610d20919061642a565b6145de565b005b610d2f61462a565b604051610d3f9493929190617106565b60405180910390f35b610d626004803603810190610d5d919061642a565b614698565b005b610d6c61471b565b604051610d79919061714b565b60405180910390f35b610d8a614721565b604051610d979190617187565b60405180910390f35b610da8614747565b604051610db59190616466565b60405180910390f35b610dc661476f565b828073ffffffffffffffffffffffffffffffffffffffff163373ffffffffffffffffffffffffffffffffffffffff161480610e4e5750609860009054906101000a900473ffffffffffffffffffffffffffffffffffffffff1673ffffffffffffffffffffffffffffffffffffffff163373ffffffffffffffffffffffffffffffffffffffff16145b610e8d576040517f08c379a0000000000000000000000000000000000000000000000000000000008152600401610e84906171ff565b60405180910390fd5b610ebe86868686609a60000160109054906101000a900467ffffffffffffffff1667ffffffffffffffff16876147be565b50610ec7614a88565b5050505050565b610ed6614a92565b600073ffffffffffffffffffffffffffffffffffffffff168173ffffffffffffffffffffffffffffffffffffffff1603610f3c576040517fd92e233d00000000000000000000000000000000000000000000000000000000815260040160405180910390fd5b8060ac60006101000a81548173ffffffffffffffffffffffffffffffffffffffff021916908373ffffffffffffffffffffffffffffffffffffffff1602179055508073ffffffffffffffffffffffffffffffffffffffff167f7c0388b4f238710366ef8639dfdbad78e473a2b381ddde99fdcb50de646bf51060405160405180910390a250565b60ab60009054906101000a900473ffffffffffffffffffffffffffffffffffffffff1681565b610ff161476f565b611021838333609a60000160089054906101000a900467ffffffffffffffff1667ffffffffffffffff1685614b10565b611029614a88565b505050565b611036614a92565b8160a660008273ffffffffffffffffffffffffffffffffffffffff1673ffffffffffffffffffffffffffffffffffffffff16815260200190815260200160002060000160189054906101000a900460ff166110bd576040517f96e1352900000000000000000000000000000000000000000000000000000000815260040160405180910390fd5b8160b260008573ffffffffffffffffffffffffffffffffffffffff1673ffffffffffffffffffffffffffffffffffffffff16815260200190815260200160002060000160026101000a81548160ff0219169083151502179055508273ffffffffffffffffffffffffffffffffffffffff167f236f7fa535a2c963c4b1ee1d34d1b10bd8a1fdc8388bb23de6a884f5f1bdb0508360405161115d9190616bc1565b60405180910390a2505050565b61117261476f565b6111a2833384609a60000160009054906101000a900467ffffffffffffffff1667ffffffffffffffff1685614dd7565b6111aa614a88565b505050565b6111b761476f565b838073ffffffffffffffffffffffffffffffffffffffff163373ffffffffffffffffffffffffffffffffffffffff16148061123f5750609860009054906101000a900473ffffffffffffffffffffffffffffffffffffffff1673ffffffffffffffffffffffffffffffffffffffff163373ffffffffffffffffffffffffffffffffffffffff16145b61127e576040517f08c379a0000000000000000000000000000000000000000000000000000000008152600401611275906171ff565b60405180910390fd5b81609760008263ffffffff1663ffffffff16815260200190815260200160002060009054906101000a900460ff166112eb576040517f08c379a00000000000000000000000000000000000000000000000000000000081526004016112e290617291565b60405180910390fd5b60008403611325576040517f43ad20fc00000000000000000000000000000000000000000000000000000000815260040160405180910390fd5b605063ffffffff168363ffffffff16146115d557600060a660008a73ffffffffffffffffffffffffffffffffffffffff1673ffffffffffffffffffffffffffffffffffffffff16815260200190815260200160002060000160009054906101000a900473ffffffffffffffffffffffffffffffffffffffff1690506113ef33609860009054906101000a900473ffffffffffffffffffffffffffffffffffffffff16878473ffffffffffffffffffffffffffffffffffffffff166151fd909392919063ffffffff16565b600060405180604001604052803373ffffffffffffffffffffffffffffffffffffffff16815260200163ec9d9e2660e01b8c8c8c8c8c8c60405160240161143b969594939291906172b1565b604051602081830303815290604052907bffffffffffffffffffffffffffffffffffffffffffffffffffffffff19166020820180517bffffffffffffffffffffffffffffffffffffffffffffffffffffffff838183161783525050505081525090506000600167ffffffffffffffff8111156114ba576114b9616907565b5b6040519080825280602002602001820160405280156114f357816020015b6114e061601e565b8152602001906001900390816114d85790505b50905060405180604001604052808473ffffffffffffffffffffffffffffffffffffffff168152602001888152508160008151811061153557611534617312565b5b6020026020010181905250609860009054906101000a900473ffffffffffffffffffffffffffffffffffffffff1673ffffffffffffffffffffffffffffffffffffffff1663bce7aa038784846040518463ffffffff1660e01b815260040161159f939291906174f3565b600060405180830381600087803b1580156115b957600080fd5b505af11580156115cd573d6000803e3d6000fd5b505050505050505b61169d637907016a60e01b89898989896040516024016115f9959493929190617538565b604051602081830303815290604052907bffffffffffffffffffffffffffffffffffffffffffffffffffffffff19166020820180517bffffffffffffffffffffffffffffffffffffffffffffffffffffffff838183161783525050505060ad60009054906101000a900473ffffffffffffffffffffffffffffffffffffffff1673ffffffffffffffffffffffffffffffffffffffff1661529c90919063ffffffff16565b5050506116a8614a88565b505050505050565b6116b8614a92565b80609760008463ffffffff1663ffffffff16815260200190815260200160002060006101000a81548160ff0219169083151502179055505050565b60a46020528060005260406000206000915090505481565b611713614a92565b8160a660008273ffffffffffffffffffffffffffffffffffffffff1673ffffffffffffffffffffffffffffffffffffffff16815260200190815260200160002060000160189054906101000a900460ff1661179a576040517f96e1352900000000000000000000000000000000000000000000000000000000815260040160405180910390fd5b8160b260008573ffffffffffffffffffffffffffffffffffffffff1673ffffffffffffffffffffffffffffffffffffffff16815260200190815260200160002060000160046101000a81548160ff0219169083151502179055508273ffffffffffffffffffffffffffffffffffffffff167fde3b1ff139c7df34fdc32a464dc383822f19bc93234938f87aed799a65f172898360405161183a9190616bc1565b60405180910390a2505050565b61184f614a92565b60008103611889576040517f9d59128400000000000000000000000000000000000000000000000000000000815260040160405180910390fd5b806099819055507f51f9468910070fc9ae906e375f46182f4f84ab311131794a3eceb0b6b80e7f1b816040516118bf9190616466565b60405180910390a150565b600081565b73ae7ab96520de3a18e5e111b5eaab095312d7fe8481565b605081565b60a86020528060005260406000206000915090505481565b60ad60009054906101000a900473ffffffffffffffffffffffffffffffffffffffff1681565b611932614a92565b600073ffffffffffffffffffffffffffffffffffffffff168173ffffffffffffffffffffffffffffffffffffffff1603611998576040517fd92e233d00000000000000000000000000000000000000000000000000000000815260040160405180910390fd5b8060ad60006101000a81548173ffffffffffffffffffffffffffffffffffffffff021916908373ffffffffffffffffffffffffffffffffffffffff1602179055508073ffffffffffffffffffffffffffffffffffffffff167f3dcc0a66d404037e318c6af57572c7f3dfe9250a0a58df79167e76795027946d60405160405180910390a250565b611a27614a92565b600073ffffffffffffffffffffffffffffffffffffffff168173ffffffffffffffffffffffffffffffffffffffff1603611a8d576040517fd92e233d00000000000000000000000000000000000000000000000000000000815260040160405180910390fd5b8060ae60006101000a81548173ffffffffffffffffffffffffffffffffffffffff021916908373ffffffffffffffffffffffffffffffffffffffff1602179055508073ffffffffffffffffffffffffffffffffffffffff167fc1a4bb1bd557bbfbac2d5702ef3fd93590f2c98c8ccc7f4200564e5992a2aaa560405160405180910390a250565b611b1c61476f565b611b4c848484609a60000160189054906101000a900467ffffffffffffffff1667ffffffffffffffff1685615302565b611b54614a88565b50505050565b611b62614a92565b8160a660008273ffffffffffffffffffffffffffffffffffffffff1673ffffffffffffffffffffffffffffffffffffffff16815260200190815260200160002060000160189054906101000a900460ff16611be9576040517f96e1352900000000000000000000000000000000000000000000000000000000815260040160405180910390fd5b8160b260008573ffffffffffffffffffffffffffffffffffffffff1673ffffffffffffffffffffffffffffffffffffffff16815260200190815260200160002060000160056101000a81548160ff0219169083151502179055508273ffffffffffffffffffffffffffffffffffffffff167fecc5b7a02f15faa926cdf762a2a44a40c4c97b2927670a5c893f09e6cd8dc1da83604051611c899190616bc1565b60405180910390a2505050565b611c9e61476f565b611cab8585858585614dd7565b611cb3614a88565b5050505050565b6000806003811115611ccf57611cce61758b565b5b826003811115611ce257611ce161758b565b5b03611d3557611d2e609b60008573ffffffffffffffffffffffffffffffffffffffff1673ffffffffffffffffffffffffffffffffffffffff168152602001908152602001600020615726565b9050611ea1565b60016003811115611d4957611d4861758b565b5b826003811115611d5c57611d5b61758b565b5b03611daf57611da8609c60008573ffffffffffffffffffffffffffffffffffffffff1673ffffffffffffffffffffffffffffffffffffffff168152602001908152602001600020615726565b9050611ea0565b60026003811115611dc357611dc261758b565b5b826003811115611dd657611dd561758b565b5b03611e2957611e22609d60008573ffffffffffffffffffffffffffffffffffffffff1673ffffffffffffffffffffffffffffffffffffffff168152602001908152602001600020615726565b9050611e9f565b600380811115611e3c57611e3b61758b565b5b826003811115611e4f57611e4e61758b565b5b03611e9e57611e9b609e60008573ffffffffffffffffffffffffffffffffffffffff1673ffffffffffffffffffffffffffffffffffffffff168152602001908152602001600020615726565b90505b5b5b5b92915050565b60aa60009054906101000a900473ffffffffffffffffffffffffffffffffffffffff1681565b611ed5614a92565b608060a28054905010611f14576040517fb285db3b00000000000000000000000000000000000000000000000000000000815260040160405180910390fd5b600073ffffffffffffffffffffffffffffffffffffffff168373ffffffffffffffffffffffffffffffffffffffff1603611f7a576040517fd92e233d00000000000000000000000000000000000000000000000000000000815260040160405180910390fd5b61271061ffff168161ffff161180611f9b575061271061ffff168261ffff16115b15611fd2576040517fd4be58d800000000000000000000000000000000000000000000000000000000815260040160405180910390fd5b61207660ab60009054906101000a900473ffffffffffffffffffffffffffffffffffffffff1673ffffffffffffffffffffffffffffffffffffffff1663c44b11f7856040518263ffffffff1660e01b815260040161203091906164f4565b602060405180830381865afa15801561204d573d6000803e3d6000fd5b505050506040513d601f19601f82011682018060405250810190612071919061760b565b61578d565b6120ac576040517fb00f4f5600000000000000000000000000000000000000000000000000000000815260040160405180910390fd5b600060ab60009054906101000a900473ffffffffffffffffffffffffffffffffffffffff1673ffffffffffffffffffffffffffffffffffffffff166335ea6a75856040518263ffffffff1660e01b815260040161210991906164f4565b61018060405180830381865afa158015612127573d6000803e3d6000fd5b505050506040513d601f19601f8201168201806040525081019061214b9190617820565b60e00151905060a660008273ffffffffffffffffffffffffffffffffffffffff1673ffffffffffffffffffffffffffffffffffffffff16815260200190815260200160002060000160189054906101000a900460ff16156121d8576040517fd7d82e5800000000000000000000000000000000000000000000000000000000815260040160405180910390fd5b6b033b2e3c9fd0803ce800000060a360008373ffffffffffffffffffffffffffffffffffffffff1673ffffffffffffffffffffffffffffffffffffffff168152602001908152602001600020819055506b033b2e3c9fd0803ce800000060a460008373ffffffffffffffffffffffffffffffffffffffff1673ffffffffffffffffffffffffffffffffffffffff16815260200190815260200160002081905550600060a560008373ffffffffffffffffffffffffffffffffffffffff1673ffffffffffffffffffffffffffffffffffffffff1681526020019081526020016000209050428160000160006101000a81548163ffffffff021916908363ffffffff16021790555060ab60009054906101000a900473ffffffffffffffffffffffffffffffffffffffff1673ffffffffffffffffffffffffffffffffffffffff1663d15e0053866040518263ffffffff1660e01b815260040161233991906164f4565b602060405180830381865afa158015612356573d6000803e3d6000fd5b505050506040513d601f19601f8201168201806040525081019061237a919061784e565b8160000160046101000a8154816dffffffffffffffffffffffffffff02191690836dffffffffffffffffffffffffffff16021790555060ab60009054906101000a900473ffffffffffffffffffffffffffffffffffffffff1673ffffffffffffffffffffffffffffffffffffffff1663386497fd866040518263ffffffff1660e01b815260040161240b91906164f4565b602060405180830381865afa158015612428573d6000803e3d6000fd5b505050506040513d601f19601f8201168201806040525081019061244c919061784e565b8160000160126101000a8154816dffffffffffffffffffffffffffff02191690836dffffffffffffffffffffffffffff1602179055506040518060e001604052808673ffffffffffffffffffffffffffffffffffffffff1681526020018561ffff1681526020018461ffff1681526020016001151581526020016000151581526020016000151581526020016000151581525060a660008473ffffffffffffffffffffffffffffffffffffffff1673ffffffffffffffffffffffffffffffffffffffff16815260200190815260200160002060008201518160000160006101000a81548173ffffffffffffffffffffffffffffffffffffffff021916908373ffffffffffffffffffffffffffffffffffffffff16021790555060208201518160000160146101000a81548161ffff021916908361ffff16021790555060408201518160000160166101000a81548161ffff021916908361ffff16021790555060608201518160000160186101000a81548160ff02191690831515021790555060808201518160000160196101000a81548160ff02191690831515021790555060a082015181600001601a6101000a81548160ff02191690831515021790555060c082015181600001601b6101000a81548160ff021916908315150217905550905050600160a280549050901b600160001b901b60a860008473ffffffffffffffffffffffffffffffffffffffff1673ffffffffffffffffffffffffffffffffffffffff1681526020019081526020016000208190555060a2829080600181540180825580915050600190039060005260206000200160009091909190916101000a81548173ffffffffffffffffffffffffffffffffffffffff021916908373ffffffffffffffffffffffffffffffffffffffff16021790555061275260ab60009054906101000a900473ffffffffffffffffffffffffffffffffffffffff167fffffffffffffffffffffffffffffffffffffffffffffffffffffffffffffffff8773ffffffffffffffffffffffffffffffffffffffff166157c19092919063ffffffff16565b8173ffffffffffffffffffffffffffffffffffffffff167f411078003dc53bceaaa8a7c1d423236d5ce8eaac303e86acab168abcd3e91ffd858560405161279a92919061787b565b60405180910390a25050505050565b609860009054906101000a900473ffffffffffffffffffffffffffffffffffffffff1681565b60a56020528060005260406000206000915090508060000160009054906101000a900463ffffffff16908060000160049054906101000a90046dffffffffffffffffffffffffffff16908060000160129054906101000a90046dffffffffffffffffffffffffffff16905083565b60008060019054906101000a900460ff1615905080801561286e5750600160008054906101000a900460ff1660ff16105b8061289b575061287d3061474c565b15801561289a5750600160008054906101000a900460ff1660ff16145b5b6128da576040517f08c379a00000000000000000000000000000000000000000000000000000000081526004016128d190617916565b60405180910390fd5b60016000806101000a81548160ff021916908360ff1602179055508015612917576001600060016101000a81548160ff0219169083151502179055505b60008203612951576040517f9d59128400000000000000000000000000000000000000000000000000000000815260040160405180910390fd5b612959615859565b6129616158b2565b8460ae60006101000a81548173ffffffffffffffffffffffffffffffffffffffff021916908373ffffffffffffffffffffffffffffffffffffffff1602179055508660ac60006101000a81548173ffffffffffffffffffffffffffffffffffffffff021916908373ffffffffffffffffffffffffffffffffffffffff1602179055508560ad60006101000a81548173ffffffffffffffffffffffffffffffffffffffff021916908373ffffffffffffffffffffffffffffffffffffffff1602179055508360a960006101000a81548173ffffffffffffffffffffffffffffffffffffffff021916908373ffffffffffffffffffffffffffffffffffffffff16021790555060a960009054906101000a900473ffffffffffffffffffffffffffffffffffffffff1673ffffffffffffffffffffffffffffffffffffffff16630261bf8b6040518163ffffffff1660e01b8152600401602060405180830381865afa158015612ad2573d6000803e3d6000fd5b505050506040513d601f19601f82011682018060405250810190612af69190617936565b60ab60006101000a81548173ffffffffffffffffffffffffffffffffffffffff021916908373ffffffffffffffffffffffffffffffffffffffff160217905550612b42605060016116b0565b82609a60008201518160000160006101000a81548167ffffffffffffffff021916908367ffffffffffffffff16021790555060208201518160000160086101000a81548167ffffffffffffffff021916908367ffffffffffffffff16021790555060408201518160000160106101000a81548167ffffffffffffffff021916908367ffffffffffffffff16021790555060608201518160000160186101000a81548167ffffffffffffffff021916908367ffffffffffffffff160217905550905050816099819055508015612c645760008060016101000a81548160ff0219169083151502179055507f7f26b83ff96e1f2b6a682f133852f6798a09c465da95921460cefb38474024986001604051612c5b919061799e565b60405180910390a15b50505050505050565b612c75614a92565b8160a660008273ffffffffffffffffffffffffffffffffffffffff1673ffffffffffffffffffffffffffffffffffffffff16815260200190815260200160002060000160189054906101000a900460ff16612cfc576040517f96e1352900000000000000000000000000000000000000000000000000000000815260040160405180910390fd5b60b260008473ffffffffffffffffffffffffffffffffffffffff1673ffffffffffffffffffffffffffffffffffffffff16815260200190815260200160002060000160019054906101000a900460ff16612d82576040517f4fad44a700000000000000000000000000000000000000000000000000000000815260040160405180910390fd5b8160b260008573ffffffffffffffffffffffffffffffffffffffff1673ffffffffffffffffffffffffffffffffffffffff16815260200190815260200160002060000160066101000a81548160ff0219169083151502179055508273ffffffffffffffffffffffffffffffffffffffff167fe2c7b55d1aabd74df3316c12a0694d6663ead504f49f595f01d6d69b96d2c7d783604051612e229190616bc1565b60405180910390a2505050565b612e37614a92565b612e41600061590b565b565b612e4b614a92565b8160a660008273ffffffffffffffffffffffffffffffffffffffff1673ffffffffffffffffffffffffffffffffffffffff16815260200190815260200160002060000160189054906101000a900460ff16612ed2576040517f96e1352900000000000000000000000000000000000000000000000000000000815260040160405180910390fd5b8160a660008573ffffffffffffffffffffffffffffffffffffffff1673ffffffffffffffffffffffffffffffffffffffff168152602001908152602001600020600001601b6101000a81548160ff0219169083151502179055508273ffffffffffffffffffffffffffffffffffffffff167f8d2c76c0d7dcf49cd4c4f8a206eb0f990b10bf5635ece070fb58ce9d33a7874f83604051612f729190616bc1565b60405180910390a2505050565b612f87614a92565b80609a60008201518160000160006101000a81548167ffffffffffffffff021916908367ffffffffffffffff16021790555060208201518160000160086101000a81548167ffffffffffffffff021916908367ffffffffffffffff16021790555060408201518160000160106101000a81548167ffffffffffffffff021916908367ffffffffffffffff16021790555060608201518160000160186101000a81548167ffffffffffffffff021916908367ffffffffffffffff1602179055509050507f837ae3fc1cda9774726e0150f9f2ba34b5b33716fe86de000a7e552622fed8d5816040516130789190617a1d565b60405180910390a150565b60008060038111156130985761309761758b565b5b8360038111156130ab576130aa61758b565b5b036131085761310182609b60008773ffffffffffffffffffffffffffffffffffffffff1673ffffffffffffffffffffffffffffffffffffffff1681526020019081526020016000206159d190919063ffffffff16565b9050613292565b6001600381111561311c5761311b61758b565b5b83600381111561312f5761312e61758b565b5b0361318c5761318582609c60008773ffffffffffffffffffffffffffffffffffffffff1673ffffffffffffffffffffffffffffffffffffffff1681526020019081526020016000206159d190919063ffffffff16565b9050613291565b600260038111156131a05761319f61758b565b5b8360038111156131b3576131b261758b565b5b036132105761320982609d60008773ffffffffffffffffffffffffffffffffffffffff1673ffffffffffffffffffffffffffffffffffffffff1681526020019081526020016000206159d190919063ffffffff16565b9050613290565b6003808111156132235761322261758b565b5b8360038111156132365761323561758b565b5b0361328f5761328c82609e60008773ffffffffffffffffffffffffffffffffffffffff1673ffffffffffffffffffffffffffffffffffffffff1681526020019081526020016000206159d190919063ffffffff16565b90505b5b5b5b9392505050565b6132a161476f565b6132d283833333609a60000160109054906101000a900467ffffffffffffffff1667ffffffffffffffff16866147be565b6132da614a88565b505050565b60ae60009054906101000a900473ffffffffffffffffffffffffffffffffffffffff1681565b61330d614a92565b8160a660008273ffffffffffffffffffffffffffffffffffffffff1673ffffffffffffffffffffffffffffffffffffffff16815260200190815260200160002060000160189054906101000a900460ff16613394576040517f96e1352900000000000000000000000000000000000000000000000000000000815260040160405180910390fd5b811580156133ee575060b260008473ffffffffffffffffffffffffffffffffffffffff1673ffffffffffffffffffffffffffffffffffffffff16815260200190815260200160002060000160069054906101000a900460ff165b15613425576040517f0679d36d00000000000000000000000000000000000000000000000000000000815260040160405180910390fd5b8160b260008573ffffffffffffffffffffffffffffffffffffffff1673ffffffffffffffffffffffffffffffffffffffff16815260200190815260200160002060000160016101000a81548160ff0219169083151502179055508273ffffffffffffffffffffffffffffffffffffffff167fe6ce588b7abf5f6ef89a09ddf17cc94db3e56ab715671af1edb2e97f2c35231c836040516134c59190616bc1565b60405180910390a2505050565b60a36020528060005260406000206000915090505481565b60976020528060005260406000206000915054906101000a900460ff1681565b6000603360009054906101000a900473ffffffffffffffffffffffffffffffffffffffff16905090565b61353c614a92565b600073ffffffffffffffffffffffffffffffffffffffff1660b160009054906101000a900473ffffffffffffffffffffffffffffffffffffffff1673ffffffffffffffffffffffffffffffffffffffff16036135c4576040517fd92e233d00000000000000000000000000000000000000000000000000000000815260040160405180910390fd5b600084849050905060005b818110156138d45760008686838181106135ec576135eb617312565b5b9050602002016020810190613601919061642a565b9050600060a660008373ffffffffffffffffffffffffffffffffffffffff1673ffffffffffffffffffffffffffffffffffffffff1681526020019081526020016000206040518060e00160405290816000820160009054906101000a900473ffffffffffffffffffffffffffffffffffffffff1673ffffffffffffffffffffffffffffffffffffffff1673ffffffffffffffffffffffffffffffffffffffff1681526020016000820160149054906101000a900461ffff1661ffff1661ffff1681526020016000820160169054906101000a900461ffff1661ffff1661ffff1681526020016000820160189054906101000a900460ff161515151581526020016000820160199054906101000a900460ff1615151515815260200160008201601a9054906101000a900460ff1615151515815260200160008201601b9054906101000a900460ff161515151581525050905080606001516137635750506138c3565b60008160000151905060008173ffffffffffffffffffffffffffffffffffffffff166370a08231306040518263ffffffff1660e01b81526004016137a791906164f4565b602060405180830381865afa1580156137c4573d6000803e3d6000fd5b505050506040513d601f19601f820116820180604052508101906137e8919061784e565b9050600081036137fb57505050506138c3565b600061382089898881811061381357613812617312565b5b9050602002013583615b12565b905061386f60b160009054906101000a900473ffffffffffffffffffffffffffffffffffffffff16828573ffffffffffffffffffffffffffffffffffffffff16615b259092919063ffffffff16565b8473ffffffffffffffffffffffffffffffffffffffff167fbc50cfea30a46f2c6d1638717dc48ef12ab41ce93c25960f749ed48623b5aeca826040516138b59190616466565b60405180910390a250505050505b806138cd90617a67565b90506135cf565b505050505050565b60a0602052816000526040600020602052806000526040600020600091509150508060000154908060010154905082565b61391561476f565b613945848484609a60000160009054906101000a900467ffffffffffffffff1667ffffffffffffffff1685614dd7565b61394d614a88565b50505050565b61395b61476f565b818073ffffffffffffffffffffffffffffffffffffffff163373ffffffffffffffffffffffffffffffffffffffff1614806139e35750609860009054906101000a900473ffffffffffffffffffffffffffffffffffffffff1673ffffffffffffffffffffffffffffffffffffffff163373ffffffffffffffffffffffffffffffffffffffff16145b613a22576040517f08c379a0000000000000000000000000000000000000000000000000000000008152600401613a19906171ff565b60405180910390fd5b613a2f8686858786614b10565b50613a38614a88565b5050505050565b60a66020528060005260406000206000915090508060000160009054906101000a900473ffffffffffffffffffffffffffffffffffffffff16908060000160149054906101000a900461ffff16908060000160169054906101000a900461ffff16908060000160189054906101000a900460ff16908060000160199054906101000a900460ff169080600001601a9054906101000a900460ff169080600001601b9054906101000a900460ff16905087565b60a76020528060005260406000206000915090508060000154908060010154908060020154908060030154905084565b600281565b606060a2805480602002602001604051908101604052809291908181526020018280548015613baa57602002820191906000526020600020905b8160009054906101000a900473ffffffffffffffffffffffffffffffffffffffff1673ffffffffffffffffffffffffffffffffffffffff1681526020019060010190808311613b60575b5050505050905090565b8060a660008273ffffffffffffffffffffffffffffffffffffffff1673ffffffffffffffffffffffffffffffffffffffff16815260200190815260200160002060000160189054906101000a900460ff16613c3b576040517f96e1352900000000000000000000000000000000000000000000000000000000815260040160405180910390fd5b613c4482615bbd565b5050565b6b0382b9abc7861e2c57645ae281565b613c60614a92565b600060a280549050905060005b81811015613cce57600060a28281548110613c8b57613c8a617312565b5b9060005260206000200160009054906101000a900473ffffffffffffffffffffffffffffffffffffffff169050613cc28185615c81565b81600101915050613c6d565b505050565b613cdb61476f565b613d0b833384609a60000160189054906101000a900467ffffffffffffffff1667ffffffffffffffff1685615302565b613d13614a88565b505050565b60b160009054906101000a900473ffffffffffffffffffffffffffffffffffffffff1681565b60af60009054906101000a900473ffffffffffffffffffffffffffffffffffffffff1681565b7f555555555555555555555555555555555555555555555555555555555555555560001b81565b60a16020528060005260406000206000915090505481565b600160001b81565b670de0b6b3a764000081565b613dbf614a92565b8160a660008273ffffffffffffffffffffffffffffffffffffffff1673ffffffffffffffffffffffffffffffffffffffff16815260200190815260200160002060000160189054906101000a900460ff16613e46576040517f96e1352900000000000000000000000000000000000000000000000000000000815260040160405180910390fd5b8160b260008573ffffffffffffffffffffffffffffffffffffffff1673ffffffffffffffffffffffffffffffffffffffff16815260200190815260200160002060000160006101000a81548160ff0219169083151502179055508273ffffffffffffffffffffffffffffffffffffffff167f50a7b7d99bd8947e0682dbfe9e066ee0aeec8530cb45b0ec3fc6db94f56aa85e83604051613ee69190616bc1565b60405180910390a2505050565b60a960009054906101000a900473ffffffffffffffffffffffffffffffffffffffff1681565b613f21614a92565b613fe3630a954c6f60e01b8383604051602401613f3f929190617aaf565b604051602081830303815290604052907bffffffffffffffffffffffffffffffffffffffffffffffffffffffff19166020820180517bffffffffffffffffffffffffffffffffffffffffffffffffffffffff838183161783525050505060ad60009054906101000a900473ffffffffffffffffffffffffffffffffffffffff1673ffffffffffffffffffffffffffffffffffffffff1661529c90919063ffffffff16565b505050565b609860149054906101000a900460ff1681565b614003614a92565b8060b160006101000a81548173ffffffffffffffffffffffffffffffffffffffff021916908373ffffffffffffffffffffffffffffffffffffffff1602179055508073ffffffffffffffffffffffffffffffffffffffff167f7b23bd31f405e09a43804fe266d4b6c17f4f4369ff5f43f71452c76aa43620ac60405160405180910390a250565b61138881565b60b26020528060005260406000206000915090508060000160009054906101000a900460ff16908060000160019054906101000a900460ff16908060000160029054906101000a900460ff16908060000160039054906101000a900460ff16908060000160049054906101000a900460ff16908060000160059054906101000a900460ff16908060000160069054906101000a900460ff16905087565b60b060009054906101000a900473ffffffffffffffffffffffffffffffffffffffff1681565b61415b614a92565b8160a660008273ffffffffffffffffffffffffffffffffffffffff1673ffffffffffffffffffffffffffffffffffffffff16815260200190815260200160002060000160189054906101000a900460ff166141e2576040517f96e1352900000000000000000000000000000000000000000000000000000000815260040160405180910390fd5b61271061ffff168261ffff161115614226576040517fd4be58d800000000000000000000000000000000000000000000000000000000815260040160405180910390fd5b61422f83615bbd565b8160a660008573ffffffffffffffffffffffffffffffffffffffff1673ffffffffffffffffffffffffffffffffffffffff16815260200190815260200160002060000160146101000a81548161ffff021916908361ffff1602179055508273ffffffffffffffffffffffffffffffffffffffff167f07e13f8ca204c42dabbc3599491f28193fc66fb9dac125630b2eb7c21bed9be9836040516142d2919061714b565b60405180910390a2505050565b6142e7614a92565b8160a660008273ffffffffffffffffffffffffffffffffffffffff1673ffffffffffffffffffffffffffffffffffffffff16815260200190815260200160002060000160189054906101000a900460ff1661436e576040517f96e1352900000000000000000000000000000000000000000000000000000000815260040160405180910390fd5b8160b260008573ffffffffffffffffffffffffffffffffffffffff1673ffffffffffffffffffffffffffffffffffffffff16815260200190815260200160002060000160036101000a81548160ff0219169083151502179055508273ffffffffffffffffffffffffffffffffffffffff167f77091c0520d6a8b7eb5ece40a3f4ed7aa62ee1fbfa5f5727e6f731372e759a218360405161440e9190616bc1565b60405180910390a2505050565b609f602052816000526040600020602052806000526040600020600091509150508060000154908060010154905082565b614454614a92565b8160a660008273ffffffffffffffffffffffffffffffffffffffff1673ffffffffffffffffffffffffffffffffffffffff16815260200190815260200160002060000160189054906101000a900460ff166144db576040517f96e1352900000000000000000000000000000000000000000000000000000000815260040160405180910390fd5b61271061ffff168261ffff16111561451f576040517fd4be58d800000000000000000000000000000000000000000000000000000000815260040160405180910390fd5b61452883615bbd565b8160a660008573ffffffffffffffffffffffffffffffffffffffff1673ffffffffffffffffffffffffffffffffffffffff16815260200190815260200160002060000160166101000a81548161ffff021916908361ffff1602179055508273ffffffffffffffffffffffffffffffffffffffff167ff9da65ad6e566b695847a15f00a9b1d9a737638ec570828b2043dca63737b305836040516145cb919061714b565b60405180910390a2505050565b60995481565b6145e6614a92565b80609860006101000a81548173ffffffffffffffffffffffffffffffffffffffff021916908373ffffffffffffffffffffffffffffffffffffffff16021790555050565b609a8060000160009054906101000a900467ffffffffffffffff16908060000160089054906101000a900467ffffffffffffffff16908060000160109054906101000a900467ffffffffffffffff16908060000160189054906101000a900467ffffffffffffffff16905084565b6146a0614a92565b600073ffffffffffffffffffffffffffffffffffffffff168173ffffffffffffffffffffffffffffffffffffffff160361470f576040517f08c379a000000000000000000000000000000000000000000000000000000000815260040161470690617b4a565b60405180910390fd5b6147188161590b565b50565b61271081565b60ac60009054906101000a900473ffffffffffffffffffffffffffffffffffffffff1681565b608081565b6000808273ffffffffffffffffffffffffffffffffffffffff163b119050919050565b6002606554036147b4576040517f08c379a00000000000000000000000000000000000000000000000000000000081526004016147ab90617bb6565b60405180910390fd5b6002606581905550565b80609760008263ffffffff1663ffffffff16815260200190815260200160002060009054906101000a900460ff1661482b576040517f08c379a000000000000000000000000000000000000000000000000000000000815260040161482290617291565b60405180910390fd5b60008603614865576040517f43ad20fc00000000000000000000000000000000000000000000000000000000815260040160405180910390fd5b605063ffffffff168263ffffffff16146149b657600060405180604001604052803373ffffffffffffffffffffffffffffffffffffffff168152602001630b6ff42260e01b8a8a8a8a896040516024016148c3959493929190617bd6565b604051602081830303815290604052907bffffffffffffffffffffffffffffffffffffffffffffffffffffffff19166020820180517bffffffffffffffffffffffffffffffffffffffffffffffffffffffff83818316178352505050508152509050609860009054906101000a900473ffffffffffffffffffffffffffffffffffffffff1673ffffffffffffffffffffffffffffffffffffffff16635d161f9784836040518363ffffffff1660e01b8152600401614982929190617c29565b600060405180830381600087803b15801561499c57600080fd5b505af11580156149b0573d6000803e3d6000fd5b50505050505b614a7e63b6f2bf1c60e01b88888888886040516024016149da959493929190617c59565b604051602081830303815290604052907bffffffffffffffffffffffffffffffffffffffffffffffffffffffff19166020820180517bffffffffffffffffffffffffffffffffffffffffffffffffffffffff838183161783525050505060ad60009054906101000a900473ffffffffffffffffffffffffffffffffffffffff1673ffffffffffffffffffffffffffffffffffffffff1661529c90919063ffffffff16565b5050505050505050565b6001606581905550565b614a9a615f5c565b73ffffffffffffffffffffffffffffffffffffffff16614ab861350a565b73ffffffffffffffffffffffffffffffffffffffff1614614b0e576040517f08c379a0000000000000000000000000000000000000000000000000000000008152600401614b0590617cf8565b60405180910390fd5b565b80609760008263ffffffff1663ffffffff16815260200190815260200160002060009054906101000a900460ff16614b7d576040517f08c379a0000000000000000000000000000000000000000000000000000000008152600401614b7490617291565b60405180910390fd5b60008503614bb7576040517f43ad20fc00000000000000000000000000000000000000000000000000000000815260040160405180910390fd5b605063ffffffff168263ffffffff1614614d0857600060405180604001604052803373ffffffffffffffffffffffffffffffffffffffff1681526020016393dcfaa860e01b8989888a89604051602401614c15959493929190617d18565b604051602081830303815290604052907bffffffffffffffffffffffffffffffffffffffffffffffffffffffff19166020820180517bffffffffffffffffffffffffffffffffffffffffffffffffffffffff83818316178352505050508152509050609860009054906101000a900473ffffffffffffffffffffffffffffffffffffffff1673ffffffffffffffffffffffffffffffffffffffff16635d161f9784836040518363ffffffff1660e01b8152600401614cd4929190617c29565b600060405180830381600087803b158015614cee57600080fd5b505af1158015614d02573d6000803e3d6000fd5b50505050505b614dce639fab103660e01b87878787604051602401614d2a9493929190617d6b565b604051602081830303815290604052907bffffffffffffffffffffffffffffffffffffffffffffffffffffffff19166020820180517bffffffffffffffffffffffffffffffffffffffffffffffffffffffff838183161783525050505060ac60009054906101000a900473ffffffffffffffffffffffffffffffffffffffff1673ffffffffffffffffffffffffffffffffffffffff1661529c90919063ffffffff16565b50505050505050565b80609760008263ffffffff1663ffffffff16815260200190815260200160002060009054906101000a900460ff16614e44576040517f08c379a0000000000000000000000000000000000000000000000000000000008152600401614e3b90617291565b60405180910390fd5b60008403614e7e576040517f43ad20fc00000000000000000000000000000000000000000000000000000000815260040160405180910390fd5b605063ffffffff168263ffffffff161461512c57600060a660008873ffffffffffffffffffffffffffffffffffffffff1673ffffffffffffffffffffffffffffffffffffffff16815260200190815260200160002060000160009054906101000a900473ffffffffffffffffffffffffffffffffffffffff169050614f4833609860009054906101000a900473ffffffffffffffffffffffffffffffffffffffff16878473ffffffffffffffffffffffffffffffffffffffff166151fd909392919063ffffffff16565b600060405180604001604052803373ffffffffffffffffffffffffffffffffffffffff168152602001635935500560e01b8a8a8a8a8a604051602401614f92959493929190617db0565b604051602081830303815290604052907bffffffffffffffffffffffffffffffffffffffffffffffffffffffff19166020820180517bffffffffffffffffffffffffffffffffffffffffffffffffffffffff838183161783525050505081525090506000600167ffffffffffffffff81111561501157615010616907565b5b60405190808252806020026020018201604052801561504a57816020015b61503761601e565b81526020019060019003908161502f5790505b50905060405180604001604052808473ffffffffffffffffffffffffffffffffffffffff168152602001888152508160008151811061508c5761508b617312565b5b6020026020010181905250609860009054906101000a900473ffffffffffffffffffffffffffffffffffffffff1673ffffffffffffffffffffffffffffffffffffffff1663bce7aa038684846040518463ffffffff1660e01b81526004016150f6939291906174f3565b600060405180830381600087803b15801561511057600080fd5b505af1158015615124573d6000803e3d6000fd5b505050505050505b6151f46385d7334d60e01b8733888888604051602401615150959493929190617e03565b604051602081830303815290604052907bffffffffffffffffffffffffffffffffffffffffffffffffffffffff19166020820180517bffffffffffffffffffffffffffffffffffffffffffffffffffffffff838183161783525050505060ac60009054906101000a900473ffffffffffffffffffffffffffffffffffffffff1673ffffffffffffffffffffffffffffffffffffffff1661529c90919063ffffffff16565b50505050505050565b60006040517f23b872dd0000000000000000000000000000000000000000000000000000000081528460048201528360248201528260448201526020600060648360008a5af13d15601f3d1160016000511416171691505080615295576040517f08c379a000000000000000000000000000000000000000000000000000000000815260040161528c90617ea2565b60405180910390fd5b5050505050565b60606040519050600080835160208501865af46152e9573d6152e0577f06f7035e000000000000000000000000000000000000000000000000000000008152600481fd5b3d6000823e3d81fd5b3d8152602081013d6000823e3d81016040525092915050565b80609760008263ffffffff1663ffffffff16815260200190815260200160002060009054906101000a900460ff1661536f576040517f08c379a000000000000000000000000000000000000000000000000000000000815260040161536690617291565b60405180910390fd5b600084036153a9576040517f43ad20fc00000000000000000000000000000000000000000000000000000000815260040160405180910390fd5b605063ffffffff168263ffffffff161461565557600060a660008873ffffffffffffffffffffffffffffffffffffffff1673ffffffffffffffffffffffffffffffffffffffff16815260200190815260200160002060000160009054906101000a900473ffffffffffffffffffffffffffffffffffffffff16905061547333609860009054906101000a900473ffffffffffffffffffffffffffffffffffffffff16878473ffffffffffffffffffffffffffffffffffffffff166151fd909392919063ffffffff16565b600060405180604001604052803373ffffffffffffffffffffffffffffffffffffffff168152602001634862ce0060e01b8a8a8a896040516024016154bb9493929190617ec2565b604051602081830303815290604052907bffffffffffffffffffffffffffffffffffffffffffffffffffffffff19166020820180517bffffffffffffffffffffffffffffffffffffffffffffffffffffffff838183161783525050505081525090506000600167ffffffffffffffff81111561553a57615539616907565b5b60405190808252806020026020018201604052801561557357816020015b61556061601e565b8152602001906001900390816155585790505b50905060405180604001604052808473ffffffffffffffffffffffffffffffffffffffff16815260200188815250816000815181106155b5576155b4617312565b5b6020026020010181905250609860009054906101000a900473ffffffffffffffffffffffffffffffffffffffff1673ffffffffffffffffffffffffffffffffffffffff1663bce7aa038684846040518463ffffffff1660e01b815260040161561f939291906174f3565b600060405180830381600087803b15801561563957600080fd5b505af115801561564d573d6000803e3d6000fd5b505050505050505b61571d63c2af978760e01b8733888888604051602401615679959493929190617e03565b604051602081830303815290604052907bffffffffffffffffffffffffffffffffffffffffffffffffffffffff19166020820180517bffffffffffffffffffffffffffffffffffffffffffffffffffffffff838183161783525050505060ad60009054906101000a900473ffffffffffffffffffffffffffffffffffffffff1673ffffffffffffffffffffffffffffffffffffffff1661529c90919063ffffffff16565b50505050505050565b60008082600001805490501115615783578160000160008154811061574e5761574d617312565b5b9060005260206000200160000160009054906101000a900473ffffffffffffffffffffffffffffffffffffffff169050615788565b600090505b919050565b6000807ffffffffffffffffffffffffffffffffffffffffffffffffffeffffffffffffff1983600001511614159050919050565b60006040517f095ea7b3000000000000000000000000000000000000000000000000000000008152836004820152826024820152602060006044836000895af13d15601f3d1160016000511416171691505080615853576040517f08c379a000000000000000000000000000000000000000000000000000000000815260040161584a90617f53565b60405180910390fd5b50505050565b600060019054906101000a900460ff166158a8576040517f08c379a000000000000000000000000000000000000000000000000000000000815260040161589f90617fe5565b60405180910390fd5b6158b0615f64565b565b600060019054906101000a900460ff16615901576040517f08c379a00000000000000000000000000000000000000000000000000000000081526004016158f890617fe5565b60405180910390fd5b615909615fbd565b565b6000603360009054906101000a900473ffffffffffffffffffffffffffffffffffffffff16905081603360006101000a81548173ffffffffffffffffffffffffffffffffffffffff021916908373ffffffffffffffffffffffffffffffffffffffff1602179055508173ffffffffffffffffffffffffffffffffffffffff168173ffffffffffffffffffffffffffffffffffffffff167f8be0079c531659141344cd1fd0a4f28419497f9722a3daafe3b4186f6b6457e060405160405180910390a35050565b6000808360020160008473ffffffffffffffffffffffffffffffffffffffff1673ffffffffffffffffffffffffffffffffffffffff1681526020019081526020016000205490508360000180549050600182615a2d9190618005565b101580615aa957508273ffffffffffffffffffffffffffffffffffffffff16846000018281548110615a6257615a61617312565b5b9060005260206000200160000160009054906101000a900473ffffffffffffffffffffffffffffffffffffffff1673ffffffffffffffffffffffffffffffffffffffff1614155b15615ab8576000915050615b0c565b83600001600182615ac99190618005565b81548110615ada57615ad9617312565b5b9060005260206000200160000160009054906101000a900473ffffffffffffffffffffffffffffffffffffffff169150505b92915050565b6000828210828418028318905092915050565b60006040517fa9059cbb000000000000000000000000000000000000000000000000000000008152836004820152826024820152602060006044836000895af13d15601f3d1160016000511416171691505080615bb7576040517f08c379a0000000000000000000000000000000000000000000000000000000008152600401615bae906180a7565b60405180910390fd5b50505050565b615c7d63a2253eec60e01b82604051602401615bd991906164f4565b604051602081830303815290604052907bffffffffffffffffffffffffffffffffffffffffffffffffffffffff19166020820180517bffffffffffffffffffffffffffffffffffffffffffffffffffffffff838183161783525050505060ae60009054906101000a900473ffffffffffffffffffffffffffffffffffffffff1673ffffffffffffffffffffffffffffffffffffffff1661529c90919063ffffffff16565b5050565b600060b260008473ffffffffffffffffffffffffffffffffffffffff1673ffffffffffffffffffffffffffffffffffffffff1681526020019081526020016000209050818160000160006101000a81548160ff0219169083151502179055508273ffffffffffffffffffffffffffffffffffffffff167f50a7b7d99bd8947e0682dbfe9e066ee0aeec8530cb45b0ec3fc6db94f56aa85e83604051615d269190616bc1565b60405180910390a28060000160069054906101000a900460ff16615daf57818160000160016101000a81548160ff0219169083151502179055508273ffffffffffffffffffffffffffffffffffffffff167fe6ce588b7abf5f6ef89a09ddf17cc94db3e56ab715671af1edb2e97f2c35231c83604051615da69190616bc1565b60405180910390a25b818160000160026101000a81548160ff0219169083151502179055508273ffffffffffffffffffffffffffffffffffffffff167f236f7fa535a2c963c4b1ee1d34d1b10bd8a1fdc8388bb23de6a884f5f1bdb05083604051615e119190616bc1565b60405180910390a2818160000160036101000a81548160ff0219169083151502179055508273ffffffffffffffffffffffffffffffffffffffff167f77091c0520d6a8b7eb5ece40a3f4ed7aa62ee1fbfa5f5727e6f731372e759a2183604051615e7b9190616bc1565b60405180910390a2818160000160046101000a81548160ff0219169083151502179055508273ffffffffffffffffffffffffffffffffffffffff167fde3b1ff139c7df34fdc32a464dc383822f19bc93234938f87aed799a65f1728983604051615ee59190616bc1565b60405180910390a2818160000160056101000a81548160ff0219169083151502179055508273ffffffffffffffffffffffffffffffffffffffff167fecc5b7a02f15faa926cdf762a2a44a40c4c97b2927670a5c893f09e6cd8dc1da83604051615f4f9190616bc1565b60405180910390a2505050565b600033905090565b600060019054906101000a900460ff16615fb3576040517f08c379a0000000000000000000000000000000000000000000000000000000008152600401615faa90617fe5565b60405180910390fd5b6001606581905550565b600060019054906101000a900460ff1661600c576040517f08c379a000000000000000000000000000000000000000000000000000000000815260040161600390617fe5565b60405180910390fd5b61601c616017615f5c565b61590b565b565b6040518060400160405280600073ffffffffffffffffffffffffffffffffffffffff168152602001600081525090565b6000604051905090565b600080fd5b600080fd5b600073ffffffffffffffffffffffffffffffffffffffff82169050919050565b600061608d82616062565b9050919050565b61609d81616082565b81146160a857600080fd5b50565b6000813590506160ba81616094565b92915050565b6000819050919050565b6160d3816160c0565b81146160de57600080fd5b50565b6000813590506160f0816160ca565b92915050565b600063ffffffff82169050919050565b61610f816160f6565b811461611a57600080fd5b50565b60008135905061612c81616106565b92915050565b600080600080600060a0868803121561614e5761614d616058565b5b600061615c888289016160ab565b955050602061616d888289016160e1565b945050604061617e888289016160ab565b935050606061618f888289016160ab565b92505060806161a08882890161611d565b9150509295509295909350565b60006161b882616082565b9050919050565b6161c8816161ad565b81146161d357600080fd5b50565b6000813590506161e5816161bf565b92915050565b60006020828403121561620157616200616058565b5b600061620f848285016161d6565b91505092915050565b6000819050919050565b600061623d61623861623384616062565b616218565b616062565b9050919050565b600061624f82616222565b9050919050565b600061626182616244565b9050919050565b61627181616256565b82525050565b600060208201905061628c6000830184616268565b92915050565b6000806000606084860312156162ab576162aa616058565b5b60006162b9868287016160ab565b93505060206162ca868287016160e1565b92505060406162db8682870161611d565b9150509250925092565b60008115159050919050565b6162fa816162e5565b811461630557600080fd5b50565b600081359050616317816162f1565b92915050565b6000806040838503121561633457616333616058565b5b6000616342858286016160ab565b925050602061635385828601616308565b9150509250929050565b60008060008060008060c0878903121561637a57616379616058565b5b600061638889828a016160ab565b965050602061639989828a016160ab565b95505060406163aa89828a016160ab565b94505060606163bb89828a016160ab565b93505060806163cc89828a016160e1565b92505060a06163dd89828a0161611d565b9150509295509295509295565b6000806040838503121561640157616400616058565b5b600061640f8582860161611d565b925050602061642085828601616308565b9150509250929050565b6000602082840312156164405761643f616058565b5b600061644e848285016160ab565b91505092915050565b616460816160c0565b82525050565b600060208201905061647b6000830184616457565b92915050565b60006020828403121561649757616496616058565b5b60006164a5848285016160e1565b91505092915050565b600060ff82169050919050565b6164c4816164ae565b82525050565b60006020820190506164df60008301846164bb565b92915050565b6164ee81616082565b82525050565b600060208201905061650960008301846164e5565b92915050565b616518816160f6565b82525050565b6000602082019050616533600083018461650f565b92915050565b6000819050919050565b61654c81616539565b82525050565b60006020820190506165676000830184616543565b92915050565b600061657882616244565b9050919050565b6165888161656d565b82525050565b60006020820190506165a3600083018461657f565b92915050565b60006165b482616082565b9050919050565b6165c4816165a9565b81146165cf57600080fd5b50565b6000813590506165e1816165bb565b92915050565b6000602082840312156165fd576165fc616058565b5b600061660b848285016165d2565b91505092915050565b600061661f82616082565b9050919050565b61662f81616614565b811461663a57600080fd5b50565b60008135905061664c81616626565b92915050565b60006020828403121561666857616667616058565b5b60006166768482850161663d565b91505092915050565b6000806000806080858703121561669957616698616058565b5b60006166a7878288016160ab565b94505060206166b8878288016160ab565b93505060406166c9878288016160e1565b92505060606166da8782880161611d565b91505092959194509250565b600080600080600060a0868803121561670257616701616058565b5b6000616710888289016160ab565b9550506020616721888289016160ab565b9450506040616732888289016160e1565b9350506060616743888289016160e1565b92505060806167548882890161611d565b9150509295509295909350565b6004811061676e57600080fd5b50565b60008135905061678081616761565b92915050565b6000806040838503121561679d5761679c616058565b5b60006167ab858286016160ab565b92505060206167bc85828601616771565b9150509250929050565b600061ffff82169050919050565b6167dd816167c6565b81146167e857600080fd5b50565b6000813590506167fa816167d4565b92915050565b60008060006060848603121561681957616818616058565b5b6000616827868287016160ab565b9350506020616838868287016167eb565b9250506040616849868287016167eb565b9150509250925092565b60006dffffffffffffffffffffffffffff82169050919050565b61687681616853565b82525050565b6000606082019050616891600083018661650f565b61689e602083018561686d565b6168ab604083018461686d565b949350505050565b60006168be82616082565b9050919050565b6168ce816168b3565b81146168d957600080fd5b50565b6000813590506168eb816168c5565b92915050565b600080fd5b6000601f19601f8301169050919050565b7f4e487b7100000000000000000000000000000000000000000000000000000000600052604160045260246000fd5b61693f826168f6565b810181811067ffffffffffffffff8211171561695e5761695d616907565b5b80604052505050565b600061697161604e565b905061697d8282616936565b919050565b600067ffffffffffffffff82169050919050565b61699f81616982565b81146169aa57600080fd5b50565b6000813590506169bc81616996565b92915050565b6000608082840312156169d8576169d76168f1565b5b6169e26080616967565b905060006169f2848285016169ad565b6000830152506020616a06848285016169ad565b6020830152506040616a1a848285016169ad565b6040830152506060616a2e848285016169ad565b60608301525092915050565b6000806000806000806101208789031215616a5857616a57616058565b5b6000616a6689828a016161d6565b9650506020616a7789828a016165d2565b9550506040616a8889828a0161663d565b9450506060616a9989828a016168dc565b9350506080616aaa89828a016169c2565b925050610100616abc89828a016160e1565b9150509295509295509295565b600060808284031215616adf57616ade616058565b5b6000616aed848285016169c2565b91505092915050565b600080600060608486031215616b0f57616b0e616058565b5b6000616b1d868287016160ab565b9350506020616b2e86828701616771565b9250506040616b3f868287016160ab565b9150509250925092565b6000616b5482616244565b9050919050565b616b6481616b49565b82525050565b6000602082019050616b7f6000830184616b5b565b92915050565b600060208284031215616b9b57616b9a616058565b5b6000616ba98482850161611d565b91505092915050565b616bbb816162e5565b82525050565b6000602082019050616bd66000830184616bb2565b92915050565b600080fd5b600080fd5b600080fd5b60008083601f840112616c0157616c00616bdc565b5b8235905067ffffffffffffffff811115616c1e57616c1d616be1565b5b602083019150836020820283011115616c3a57616c39616be6565b5b9250929050565b60008083601f840112616c5757616c56616bdc565b5b8235905067ffffffffffffffff811115616c7457616c73616be1565b5b602083019150836020820283011115616c9057616c8f616be6565b5b9250929050565b60008060008060408587031215616cb157616cb0616058565b5b600085013567ffffffffffffffff811115616ccf57616cce61605d565b5b616cdb87828801616beb565b9450945050602085013567ffffffffffffffff811115616cfe57616cfd61605d565b5b616d0a87828801616c41565b925092505092959194509250565b60008060408385031215616d2f57616d2e616058565b5b6000616d3d858286016160ab565b9250506020616d4e858286016160ab565b9150509250929050565b6000604082019050616d6d6000830185616457565b616d7a6020830184616457565b9392505050565b600080600080600060a08688031215616d9d57616d9c616058565b5b6000616dab888289016160ab565b9550506020616dbc888289016160e1565b9450506040616dcd888289016160e1565b9350506060616dde888289016160ab565b9250506080616def8882890161611d565b9150509295509295909350565b616e05816167c6565b82525050565b600060e082019050616e20600083018a6164e5565b616e2d6020830189616dfc565b616e3a6040830188616dfc565b616e476060830187616bb2565b616e546080830186616bb2565b616e6160a0830185616bb2565b616e6e60c0830184616bb2565b98975050505050505050565b6000608082019050616e8f6000830187616457565b616e9c6020830186616457565b616ea96040830185616457565b616eb66060830184616457565b95945050505050565b600081519050919050565b600082825260208201905092915050565b6000819050602082019050919050565b616ef481616082565b82525050565b6000616f068383616eeb565b60208301905092915050565b6000602082019050919050565b6000616f2a82616ebf565b616f348185616eca565b9350616f3f83616edb565b8060005b83811015616f70578151616f578882616efa565b9750616f6283616f12565b925050600181019050616f43565b5085935050505092915050565b60006020820190508181036000830152616f978184616f1f565b905092915050565b600060208284031215616fb557616fb4616058565b5b6000616fc384828501616308565b91505092915050565b6000616fd782616244565b9050919050565b616fe781616fcc565b82525050565b60006020820190506170026000830184616fde565b92915050565b6000806040838503121561701f5761701e616058565b5b600061702d858286016160ab565b925050602061703e858286016160e1565b9150509250929050565b600060e08201905061705d600083018a616bb2565b61706a6020830189616bb2565b6170776040830188616bb2565b6170846060830187616bb2565b6170916080830186616bb2565b61709e60a0830185616bb2565b6170ab60c0830184616bb2565b98975050505050505050565b600080604083850312156170ce576170cd616058565b5b60006170dc858286016160ab565b92505060206170ed858286016167eb565b9150509250929050565b61710081616982565b82525050565b600060808201905061711b60008301876170f7565b61712860208301866170f7565b61713560408301856170f7565b61714260608301846170f7565b95945050505050565b60006020820190506171606000830184616dfc565b92915050565b600061717182616244565b9050919050565b61718181617166565b82525050565b600060208201905061719c6000830184617178565b92915050565b600082825260208201905092915050565b7f6e6f7420616c6c6f776564210000000000000000000000000000000000000000600082015250565b60006171e9600c836171a2565b91506171f4826171b3565b602082019050919050565b60006020820190508181036000830152617218816171dc565b9050919050565b7f696e76616c696420436861696e4944206f72206e6f7420737570706f6574206960008201527f7421000000000000000000000000000000000000000000000000000000000000602082015250565b600061727b6022836171a2565b91506172868261721f565b604082019050919050565b600060208201905081810360008301526172aa8161726e565b9050919050565b600060c0820190506172c660008301896164e5565b6172d360208301886164e5565b6172e060408301876164e5565b6172ed60608301866164e5565b6172fa6080830185616457565b61730760a083018461650f565b979650505050505050565b7f4e487b7100000000000000000000000000000000000000000000000000000000600052603260045260246000fd5b600081519050919050565b600082825260208201905092915050565b60005b8381101561737b578082015181840152602081019050617360565b8381111561738a576000848401525b50505050565b600061739b82617341565b6173a5818561734c565b93506173b581856020860161735d565b6173be816168f6565b840191505092915050565b60006040830160008301516173e16000860182616eeb565b50602083015184820360208601526173f98282617390565b9150508091505092915050565b600081519050919050565b600082825260208201905092915050565b6000819050602082019050919050565b61743b816160c0565b82525050565b6040820160008201516174576000850182616eeb565b50602082015161746a6020850182617432565b50505050565b600061747c8383617441565b60408301905092915050565b6000602082019050919050565b60006174a082617406565b6174aa8185617411565b93506174b583617422565b8060005b838110156174e65781516174cd8882617470565b97506174d883617488565b9250506001810190506174b9565b5085935050505092915050565b6000606082019050617508600083018661650f565b818103602083015261751a81856173c9565b9050818103604083015261752e8184617495565b9050949350505050565b600060a08201905061754d60008301886164e5565b61755a60208301876164e5565b61756760408301866164e5565b61757460608301856164e5565b6175816080830184616457565b9695505050505050565b7f4e487b7100000000000000000000000000000000000000000000000000000000600052602160045260246000fd5b6000815190506175c9816160ca565b92915050565b6000602082840312156175e5576175e46168f1565b5b6175ef6020616967565b905060006175ff848285016175ba565b60008301525092915050565b60006020828403121561762157617620616058565b5b600061762f848285016175cf565b91505092915050565b60006fffffffffffffffffffffffffffffffff82169050919050565b61765d81617638565b811461766857600080fd5b50565b60008151905061767a81617654565b92915050565b600064ffffffffff82169050919050565b61769a81617680565b81146176a557600080fd5b50565b6000815190506176b781617691565b92915050565b6000815190506176cc81616094565b92915050565b6176db816164ae565b81146176e657600080fd5b50565b6000815190506176f8816176d2565b92915050565b60006101808284031215617715576177146168f1565b5b617720610180616967565b90506000617730848285016175cf565b60008301525060206177448482850161766b565b60208301525060406177588482850161766b565b604083015250606061776c8482850161766b565b60608301525060806177808482850161766b565b60808301525060a06177948482850161766b565b60a08301525060c06177a8848285016176a8565b60c08301525060e06177bc848285016176bd565b60e0830152506101006177d1848285016176bd565b610100830152506101206177e7848285016176bd565b610120830152506101406177fd848285016176bd565b61014083015250610160617813848285016176e9565b6101608301525092915050565b6000610180828403121561783757617836616058565b5b6000617845848285016176fe565b91505092915050565b60006020828403121561786457617863616058565b5b6000617872848285016175ba565b91505092915050565b60006040820190506178906000830185616dfc565b61789d6020830184616dfc565b9392505050565b7f496e697469616c697a61626c653a20636f6e747261637420697320616c72656160008201527f647920696e697469616c697a6564000000000000000000000000000000000000602082015250565b6000617900602e836171a2565b915061790b826178a4565b604082019050919050565b6000602082019050818103600083015261792f816178f3565b9050919050565b60006020828403121561794c5761794b616058565b5b600061795a848285016176bd565b91505092915050565b6000819050919050565b600061798861798361797e84617963565b616218565b6164ae565b9050919050565b6179988161796d565b82525050565b60006020820190506179b3600083018461798f565b92915050565b6179c281616982565b82525050565b6080820160008201516179de60008501826179b9565b5060208201516179f160208501826179b9565b506040820151617a0460408501826179b9565b506060820151617a1760608501826179b9565b50505050565b6000608082019050617a3260008301846179c8565b92915050565b7f4e487b7100000000000000000000000000000000000000000000000000000000600052601160045260246000fd5b6000617a72826160c0565b91507fffffffffffffffffffffffffffffffffffffffffffffffffffffffffffffffff8203617aa457617aa3617a38565b5b600182019050919050565b6000604082019050617ac460008301856164e5565b617ad16020830184616457565b9392505050565b7f4f776e61626c653a206e6577206f776e657220697320746865207a65726f206160008201527f6464726573730000000000000000000000000000000000000000000000000000602082015250565b6000617b346026836171a2565b9150617b3f82617ad8565b604082019050919050565b60006020820190508181036000830152617b6381617b27565b9050919050565b7f5265656e7472616e637947756172643a207265656e7472616e742063616c6c00600082015250565b6000617ba0601f836171a2565b9150617bab82617b6a565b602082019050919050565b60006020820190508181036000830152617bcf81617b93565b9050919050565b600060a082019050617beb60008301886164e5565b617bf86020830187616457565b617c0560408301866164e5565b617c1260608301856164e5565b617c1f608083018461650f565b9695505050505050565b6000604082019050617c3e600083018561650f565b8181036020830152617c5081846173c9565b90509392505050565b600060a082019050617c6e60008301886164e5565b617c7b6020830187616457565b617c8860408301866164e5565b617c9560608301856164e5565b617ca26080830184616457565b9695505050505050565b7f4f776e61626c653a2063616c6c6572206973206e6f7420746865206f776e6572600082015250565b6000617ce26020836171a2565b9150617ced82617cac565b602082019050919050565b60006020820190508181036000830152617d1181617cd5565b9050919050565b600060a082019050617d2d60008301886164e5565b617d3a6020830187616457565b617d476040830186616457565b617d5460608301856164e5565b617d61608083018461650f565b9695505050505050565b6000608082019050617d8060008301876164e5565b617d8d6020830186616457565b617d9a60408301856164e5565b617da76060830184616457565b95945050505050565b600060a082019050617dc560008301886164e5565b617dd260208301876164e5565b617ddf6040830186616457565b617dec6060830185616457565b617df9608083018461650f565b9695505050505050565b600060a082019050617e1860008301886164e5565b617e2560208301876164e5565b617e3260408301866164e5565b617e3f6060830185616457565b617e4c6080830184616457565b9695505050505050565b7f5452414e534645525f46524f4d5f4641494c4544000000000000000000000000600082015250565b6000617e8c6014836171a2565b9150617e9782617e56565b602082019050919050565b60006020820190508181036000830152617ebb81617e7f565b9050919050565b6000608082019050617ed760008301876164e5565b617ee460208301866164e5565b617ef16040830185616457565b617efe606083018461650f565b95945050505050565b7f415050524f56455f4641494c4544000000000000000000000000000000000000600082015250565b6000617f3d600e836171a2565b9150617f4882617f07565b602082019050919050565b60006020820190508181036000830152617f6c81617f30565b9050919050565b7f496e697469616c697a61626c653a20636f6e7472616374206973206e6f74206960008201527f6e697469616c697a696e67000000000000000000000000000000000000000000602082015250565b6000617fcf602b836171a2565b9150617fda82617f73565b604082019050919050565b60006020820190508181036000830152617ffe81617fc2565b9050919050565b6000618010826160c0565b915061801b836160c0565b9250827fffffffffffffffffffffffffffffffffffffffffffffffffffffffffffffffff038211156180505761804f617a38565b5b828201905092915050565b7f5452414e534645525f4641494c45440000000000000000000000000000000000600082015250565b6000618091600f836171a2565b915061809c8261805b565b602082019050919050565b600060208201905081810360008301526180c081618084565b905091905056fea2646970667358221220098fe4b573d4a2c577eee84315aefba4836e1e555f0a3aedf34ea60da161a6e964736f6c634300080d0033",
  "linkReferences": {},
  "deployedLinkReferences": {}
}